{
  "contractName": "RealEstateAPIConsumer",
  "abi": [
    {
      "inputs": [],
      "stateMutability": "nonpayable",
      "type": "constructor"
    },
    {
      "anonymous": false,
      "inputs": [
        {
          "indexed": true,
          "internalType": "bytes32",
          "name": "id",
          "type": "bytes32"
        }
      ],
      "name": "ChainlinkCancelled",
      "type": "event"
    },
    {
      "anonymous": false,
      "inputs": [
        {
          "indexed": true,
          "internalType": "bytes32",
          "name": "id",
          "type": "bytes32"
        }
      ],
      "name": "ChainlinkFulfilled",
      "type": "event"
    },
    {
      "anonymous": false,
      "inputs": [
        {
          "indexed": true,
          "internalType": "bytes32",
          "name": "id",
          "type": "bytes32"
        }
      ],
      "name": "ChainlinkRequested",
      "type": "event"
    },
    {
      "inputs": [],
      "name": "latestRequestId",
      "outputs": [
        {
          "internalType": "bytes32",
          "name": "",
          "type": "bytes32"
        }
      ],
      "stateMutability": "view",
      "type": "function"
    },
    {
      "inputs": [],
      "name": "price",
      "outputs": [
        {
          "internalType": "uint256",
          "name": "",
          "type": "uint256"
        }
      ],
      "stateMutability": "view",
      "type": "function"
    },
    {
      "inputs": [],
      "name": "rent",
      "outputs": [
        {
          "internalType": "uint256",
          "name": "",
          "type": "uint256"
        }
      ],
      "stateMutability": "view",
      "type": "function"
    },
    {
      "inputs": [],
      "name": "surfaceArea",
      "outputs": [
        {
          "internalType": "uint256",
          "name": "",
          "type": "uint256"
        }
      ],
      "stateMutability": "view",
      "type": "function"
    },
    {
      "inputs": [],
      "name": "tokenHash",
      "outputs": [
        {
          "internalType": "bytes32",
          "name": "",
          "type": "bytes32"
        }
      ],
      "stateMutability": "view",
      "type": "function"
    },
    {
      "inputs": [
        {
          "internalType": "string",
          "name": "_name",
          "type": "string"
        }
      ],
      "name": "returnClosePrice",
      "outputs": [],
      "stateMutability": "nonpayable",
      "type": "function"
    },
    {
      "inputs": [
        {
          "internalType": "bytes32",
          "name": "_requestId",
          "type": "bytes32"
        },
        {
          "internalType": "uint256",
          "name": "_price",
          "type": "uint256"
        }
      ],
      "name": "myCallback",
      "outputs": [],
      "stateMutability": "nonpayable",
      "type": "function"
    },
    {
      "inputs": [
        {
          "internalType": "string",
          "name": "_name",
          "type": "string"
        }
      ],
      "name": "getCurrentPriceByAddress",
      "outputs": [
        {
          "internalType": "uint256",
          "name": "",
          "type": "uint256"
        }
      ],
      "stateMutability": "view",
      "type": "function"
    },
    {
      "inputs": [
        {
          "internalType": "string",
          "name": "_name",
          "type": "string"
        }
      ],
      "name": "realestateArea",
      "outputs": [],
      "stateMutability": "nonpayable",
      "type": "function"
    },
    {
      "inputs": [
        {
          "internalType": "bytes32",
          "name": "_requestId",
          "type": "bytes32"
        },
        {
          "internalType": "uint256",
          "name": "_surfaceArea",
          "type": "uint256"
        }
      ],
      "name": "fulfill",
      "outputs": [],
      "stateMutability": "nonpayable",
      "type": "function"
    },
    {
      "inputs": [
        {
          "internalType": "string",
          "name": "_name",
          "type": "string"
        }
      ],
      "name": "realestateRent",
      "outputs": [],
      "stateMutability": "nonpayable",
      "type": "function"
    },
    {
      "inputs": [
        {
          "internalType": "bytes32",
          "name": "_requestId",
          "type": "bytes32"
        },
        {
          "internalType": "uint256",
          "name": "_rent",
          "type": "uint256"
        }
      ],
      "name": "fulfillRent",
      "outputs": [],
      "stateMutability": "nonpayable",
      "type": "function"
    }
  ],
  "bytecode": "0x6080604052600160045534801561001557600080fd5b506100246100b460201b60201c565b73aa1dc356dc4b18f30c347798fd5379f3d77abc5b600660006101000a81548173ffffffffffffffffffffffffffffffffffffffff021916908373ffffffffffffffffffffffffffffffffffffffff1602179055507f633736666233333633343666346135353931633930636138323432303931643560078190555067016345785d8a000060088190555061019d565b61015773c89bd4e1632d3a43cb03aaad5262cbe4038bc57173ffffffffffffffffffffffffffffffffffffffff166338cc48316040518163ffffffff1660e01b815260040160206040518083038186803b15801561011157600080fd5b505afa158015610125573d6000803e3d6000fd5b505050506040513d602081101561013b57600080fd5b810190808051906020019092919050505061015960201b60201c565b565b80600260006101000a81548173ffffffffffffffffffffffffffffffffffffffff021916908373ffffffffffffffffffffffffffffffffffffffff16021790555050565b6117e580620001ad6000396000f3fe608060405234801561001057600080fd5b50600436106100b45760003560e01c806382996d9f1161007157806382996d9f1461030957806389e7995f14610327578063903b8dca14610345578063a035b1fe14610400578063a833834f1461041e578063cca49473146104d9576100b4565b8063117ba7f4146100b95780631aa46f59146101885780631d9d6e3c146101a657806338ba91f0146102615780634357855e146102995780634d14290a146102d1575b600080fd5b610172600480360360208110156100cf57600080fd5b81019080803590602001906401000000008111156100ec57600080fd5b8201836020820111156100fe57600080fd5b8035906020019184600183028401116401000000008311171561012057600080fd5b91908080601f016020809104026020016040519081016040528093929190818152602001838380828437600081840152601f19601f8201169050808301925050505050505091929192905050506104f7565b6040518082815260200191505060405180910390f35b61019061051c565b6040518082815260200191505060405180910390f35b61025f600480360360208110156101bc57600080fd5b81019080803590602001906401000000008111156101d957600080fd5b8201836020820111156101eb57600080fd5b8035906020019184600183028401116401000000008311171561020d57600080fd5b91908080601f016020809104026020016040519081016040528093929190818152602001838380828437600081840152601f19601f820116905080830192505050505050509192919290505050610522565b005b6102976004803603604081101561027757600080fd5b81019080803590602001909291908035906020019092919050505061065b565b005b6102cf600480360360408110156102af57600080fd5b8101908080359060200190929190803590602001909291905050506107d4565b005b610307600480360360408110156102e757600080fd5b81019080803590602001909291908035906020019092919050505061094d565b005b610311610ac6565b6040518082815260200191505060405180910390f35b61032f610acc565b6040518082815260200191505060405180910390f35b6103fe6004803603602081101561035b57600080fd5b810190808035906020019064010000000081111561037857600080fd5b82018360208201111561038a57600080fd5b803590602001918460018302840111640100000000831117156103ac57600080fd5b91908080601f016020809104026020016040519081016040528093929190818152602001838380828437600081840152601f19601f820116905080830192505050505050509192919290505050610ad2565b005b610408610c0b565b6040518082815260200191505060405180910390f35b6104d76004803603602081101561043457600080fd5b810190808035906020019064010000000081111561045157600080fd5b82018360208201111561046357600080fd5b8035906020019184600183028401116401000000008311171561048557600080fd5b91908080601f016020809104026020016040519081016040528093929190818152602001838380828437600081840152601f19601f820116905080830192505050505050509192919290505050610c11565b005b6104e1610d4a565b6040518082815260200191505060405180910390f35b60006011600061050684610d50565b8152602001908152602001600020549050919050565b600c5481565b61052a6116dd565b61053e60075430634d14290a60e01b610d7b565b905061058a6040518060400160405280600481526020017f6e616d65000000000000000000000000000000000000000000000000000000008152508383610dac9092919063ffffffff16565b6106096040518060400160405280600881526020017f636f7079506174680000000000000000000000000000000000000000000000008152506040518060400160405280600c81526020017f657870656374656452656e74000000000000000000000000000000000000000081525083610dac9092919063ffffffff16565b61061282610d50565b60106000610645600660009054906101000a900473ffffffffffffffffffffffffffffffffffffffff1685600854610ddf565b8152602001908152602001600020819055505050565b816005600082815260200190815260200160002060009054906101000a900473ffffffffffffffffffffffffffffffffffffffff1673ffffffffffffffffffffffffffffffffffffffff163373ffffffffffffffffffffffffffffffffffffffff1614610713576040517f08c379a00000000000000000000000000000000000000000000000000000000081526004018080602001828103825260288152602001806117886028913960400191505060405180910390fd5b6005600082815260200190815260200160002060006101000a81549073ffffffffffffffffffffffffffffffffffffffff0219169055807f7cc135e0cebb02c3480ae5d74d377283180a2601f8f644edf7987b009316c63a60405160405180910390a2600e600084815260200190815260200160002054600d81905550600e6000848152602001908152602001600020600090558160116000600d5481526020019081526020016000208190555082600c8190555081600981905550505050565b816005600082815260200190815260200160002060009054906101000a900473ffffffffffffffffffffffffffffffffffffffff1673ffffffffffffffffffffffffffffffffffffffff163373ffffffffffffffffffffffffffffffffffffffff161461088c576040517f08c379a00000000000000000000000000000000000000000000000000000000081526004018080602001828103825260288152602001806117886028913960400191505060405180910390fd5b6005600082815260200190815260200160002060006101000a81549073ffffffffffffffffffffffffffffffffffffffff0219169055807f7cc135e0cebb02c3480ae5d74d377283180a2601f8f644edf7987b009316c63a60405160405180910390a2600f600084815260200190815260200160002054600d81905550600f6000848152602001908152602001600020600090558160136000600d5481526020019081526020016000208190555082600c8190555081600a81905550505050565b816005600082815260200190815260200160002060009054906101000a900473ffffffffffffffffffffffffffffffffffffffff1673ffffffffffffffffffffffffffffffffffffffff163373ffffffffffffffffffffffffffffffffffffffff1614610a05576040517f08c379a00000000000000000000000000000000000000000000000000000000081526004018080602001828103825260288152602001806117886028913960400191505060405180910390fd5b6005600082815260200190815260200160002060006101000a81549073ffffffffffffffffffffffffffffffffffffffff0219169055807f7cc135e0cebb02c3480ae5d74d377283180a2601f8f644edf7987b009316c63a60405160405180910390a26010600084815260200190815260200160002054600d8190555060106000848152602001908152602001600020600090558160126000600d5481526020019081526020016000208190555082600c8190555081600b81905550505050565b600b5481565b600a5481565b610ada6116dd565b610aee60075430634357855e60e01b610d7b565b9050610b3a6040518060400160405280600481526020017f6e616d65000000000000000000000000000000000000000000000000000000008152508383610dac9092919063ffffffff16565b610bb96040518060400160405280600881526020017f636f7079506174680000000000000000000000000000000000000000000000008152506040518060400160405280600b81526020017f737572666163654172656100000000000000000000000000000000000000000081525083610dac9092919063ffffffff16565b610bc282610d50565b600f6000610bf5600660009054906101000a900473ffffffffffffffffffffffffffffffffffffffff1685600854610ddf565b8152602001908152602001600020819055505050565b60095481565b610c196116dd565b610c2d600754306338ba91f060e01b610d7b565b9050610c796040518060400160405280600481526020017f6e616d65000000000000000000000000000000000000000000000000000000008152508383610dac9092919063ffffffff16565b610cf86040518060400160405280600881526020017f636f7079506174680000000000000000000000000000000000000000000000008152506040518060400160405280600a81526020017f636c6f736550726963650000000000000000000000000000000000000000000081525083610dac9092919063ffffffff16565b610d0182610d50565b600e6000610d34600660009054906101000a900473ffffffffffffffffffffffffffffffffffffffff1685600854610ddf565b8152602001908152602001600020819055505050565b600d5481565b60006060829050600081511415610d6d576000801b915050610d76565b60208301519150505b919050565b610d836116dd565b610d8b6116dd565b610da285858584611097909392919063ffffffff16565b9150509392505050565b610dc382846080015161114790919063ffffffff16565b610dda81846080015161114790919063ffffffff16565b505050565b600030600454604051602001808373ffffffffffffffffffffffffffffffffffffffff1673ffffffffffffffffffffffffffffffffffffffff1660601b815260140182815260200192505050604051602081830303815290604052805190602001209050600454836060018181525050836005600083815260200190815260200160002060006101000a81548173ffffffffffffffffffffffffffffffffffffffff021916908373ffffffffffffffffffffffffffffffffffffffff160217905550807fb5e6e01e79f91267dc17b4e6314d5d4d03593d2ceee0fbb452b750bd70ea5af960405160405180910390a2600260009054906101000a900473ffffffffffffffffffffffffffffffffffffffff1673ffffffffffffffffffffffffffffffffffffffff16634000aea08584610f178761116c565b6040518463ffffffff1660e01b8152600401808473ffffffffffffffffffffffffffffffffffffffff1673ffffffffffffffffffffffffffffffffffffffff16815260200183815260200180602001828103825283818151815260200191508051906020019080838360005b83811015610f9e578082015181840152602081019050610f83565b50505050905090810190601f168015610fcb5780820380516001836020036101000a031916815260200191505b50945050505050602060405180830381600087803b158015610fec57600080fd5b505af1158015611000573d6000803e3d6000fd5b505050506040513d602081101561101657600080fd5b810190808051906020019092919050505061107c576040517f08c379a00000000000000000000000000000000000000000000000000000000081526004018080602001828103825260238152602001806117656023913960400191505060405180910390fd5b60016004600082825401925050819055508090509392505050565b61109f6116dd565b6110af8560800151610100611338565b508385600001818152505082856020019073ffffffffffffffffffffffffffffffffffffffff16908173ffffffffffffffffffffffffffffffffffffffff16815250508185604001907bffffffffffffffffffffffffffffffffffffffffffffffffffffffff191690817bffffffffffffffffffffffffffffffffffffffffffffffffffffffff191681525050849050949350505050565b611154826003835161138c565b61116781836114d190919063ffffffff16565b505050565b6060634042994660e01b60008084600001518560200151866040015187606001516001896080015160000151604051602401808973ffffffffffffffffffffffffffffffffffffffff1673ffffffffffffffffffffffffffffffffffffffff1681526020018881526020018781526020018673ffffffffffffffffffffffffffffffffffffffff1673ffffffffffffffffffffffffffffffffffffffff168152602001857bffffffffffffffffffffffffffffffffffffffffffffffffffffffff19167bffffffffffffffffffffffffffffffffffffffffffffffffffffffff1916815260200184815260200183815260200180602001828103825283818151815260200191508051906020019080838360005b8381101561129b578082015181840152602081019050611280565b50505050905090810190601f1680156112c85780820380516001836020036101000a031916815260200191505b509950505050505050505050604051602081830303815290604052907bffffffffffffffffffffffffffffffffffffffffffffffffffffffff19166020820180517bffffffffffffffffffffffffffffffffffffffffffffffffffffffff83818316178352505050509050919050565b61134061174a565b60006020838161134c57fe5b0614611365576020828161135c57fe5b06602003820191505b81836020018181525050604051808452600081528281016020016040525082905092915050565b601781116113b9576113b38160058460ff16901b60ff1617846114f390919063ffffffff16565b506114cc565b60ff81116113fb576113de601860058460ff16901b17846114f390919063ffffffff16565b506113f5816001856115139092919063ffffffff16565b506114cb565b61ffff811161143e57611421601960058460ff16901b17846114f390919063ffffffff16565b50611438816002856115139092919063ffffffff16565b506114ca565b63ffffffff811161148357611466601a60058460ff16901b17846114f390919063ffffffff16565b5061147d816004856115139092919063ffffffff16565b506114c9565b67ffffffffffffffff81116114c8576114af601b60058460ff16901b17846114f390919063ffffffff16565b506114c6816008856115139092919063ffffffff16565b505b5b5b5b5b505050565b6114d961174a565b6114eb83846000015151848551611535565b905092915050565b6114fb61174a565b61150b83846000015151846115ee565b905092915050565b61151b61174a565b61152c84856000015151858561163c565b90509392505050565b61153d61174a565b825182111561154b57600080fd5b846020015182850111156115765761157585600261156f886020015188870161169d565b026116b9565b5b6000808651805187602083010193508088870111156115955787860182525b60208701925050505b602084106115c1578051825260208201915060208101905060208403935061159e565b60006001856020036101000a03905080198251168184511681811785525050879350505050949350505050565b6115f661174a565b83602001518310611613576116128460028660200151026116b9565b5b835180516020858301018481538186141561162f576001820183525b5050508390509392505050565b61164461174a565b8460200151848301111561166257611661856002868501026116b9565b5b60006001836101000a039050855183868201018583198251161781528151858801111561168f5784870182525b505085915050949350505050565b6000818311156116af578290506116b3565b8190505b92915050565b6060826000015190506116cc8383611338565b506116d783826114d1565b50505050565b6040518060a0016040528060008019168152602001600073ffffffffffffffffffffffffffffffffffffffff16815260200160007bffffffffffffffffffffffffffffffffffffffffffffffffffffffff191681526020016000815260200161174461174a565b81525090565b60405180604001604052806060815260200160008152509056fe756e61626c6520746f207472616e73666572416e6443616c6c20746f206f7261636c65536f75726365206d75737420626520746865206f7261636c65206f66207468652072657175657374a2646970667358221220688505355cd2be464fc3a6b84ab9e7c08962630a35172c04df2eb8e74047e30164736f6c63430006060033",
  "immutableReferences": {},
  "source": "pragma solidity >=0.6.0 <0.7.0;\n\nimport \"@chainlink/contracts/src/v0.6/ChainlinkClient.sol\";\n\ncontract RealEstateAPIConsumer is ChainlinkClient {\n\n    address private oracle;\n    bytes32 private jobId;\n    uint256 private fee;\n    uint256 public price;\n    uint public surfaceArea;\n    uint public rent;\n    bytes32 public latestRequestId;\n    bytes32 public tokenHash;\n\n    mapping(bytes32 => bytes32) internal receiptPrice;\n    mapping(bytes32 => bytes32) internal receiptArea;\n    mapping(bytes32 => bytes32) internal receiptRent;\n    mapping(bytes32 => uint256) private currentRealEstatePrice;\n    mapping(bytes32 => uint256) private currentRealEstateRent;\n    mapping(bytes32 => uint256) private currentRealEstateArea;\n\n    constructor() public {\n        setPublicChainlinkToken();\n        oracle = 0xAA1DC356dc4B18f30C347798FD5379F3D77ABC5b;\n        jobId = \"c76fb336346f4a5591c90ca8242091d5\";\n        fee = 0.1 * 10 ** 18; // 0.1 LINK\n    }\n\n    /*function realEstateData(string memory _name) public {\n        realestateArea(_name);\n        returnClosePrice(_name);\n        realestateRent(_name);\n    }*/\n\n    function returnClosePrice(string memory _name) public {\n        Chainlink.Request memory request = buildChainlinkRequest(jobId, address(this), this.myCallback.selector);\n        request.add(\"name\", _name);\n        request.add(\"copyPath\", \"closePrice\");\n        receiptPrice[sendChainlinkRequestTo(oracle, request, fee)] = stringToBytes32(_name);\n    }\n\n    function myCallback(bytes32 _requestId, uint256 _price) public recordChainlinkFulfillment(_requestId){\n        tokenHash = receiptPrice[_requestId];\n        delete receiptPrice[_requestId];\n        currentRealEstatePrice[tokenHash] = _price;\n        latestRequestId = _requestId;\n        price = _price;\n    }\n\n    function getCurrentPriceByAddress(string memory _name) public view returns (uint256) {\n        return currentRealEstatePrice[stringToBytes32(_name)];\n    }\n\n    function realestateArea(string memory _name) public {\n        Chainlink.Request memory request = buildChainlinkRequest(jobId, address(this), this.fulfill.selector);\n        request.add(\"name\", _name);\n        request.add(\"copyPath\", \"surfaceArea\");\n        receiptArea[sendChainlinkRequestTo(oracle, request, fee)] = stringToBytes32(_name);\n    }\n\n    function fulfill(bytes32 _requestId, uint256 _surfaceArea) public recordChainlinkFulfillment(_requestId){\n        tokenHash = receiptArea[_requestId];\n        delete receiptArea[_requestId];\n        currentRealEstateArea[tokenHash] = _surfaceArea;\n        latestRequestId = _requestId;\n        surfaceArea = _surfaceArea;\n    }\n\n\n\n    function realestateRent(string memory _name) public {\n        Chainlink.Request memory request = buildChainlinkRequest(jobId, address(this), this.fulfillRent.selector);\n        request.add(\"name\", _name);\n        request.add(\"copyPath\", \"expectedRent\");\n        receiptRent[sendChainlinkRequestTo(oracle, request, fee)] = stringToBytes32(_name);\n    }\n\n    function fulfillRent(bytes32 _requestId, uint256 _rent) public recordChainlinkFulfillment(_requestId){\n        tokenHash = receiptRent[_requestId];\n        delete receiptRent[_requestId];\n        currentRealEstateRent[tokenHash] = _rent;\n        latestRequestId = _requestId;\n        rent = _rent;\n\n    }\n\n    function stringToBytes32(string memory source) internal pure returns (bytes32 result) {\n        bytes memory tempEmptyStringTest = bytes(source);\n        if (tempEmptyStringTest.length == 0) {\n            return 0x0;\n        }\n        assembly {\n            result := mload(add(source, 32))\n        }\n    }\n\n    function bytes32ToStr(bytes32 _bytes32) private pure returns (string memory) {\n        bytes memory bytesArray = new bytes(32);\n        for (uint256 i; i < 32; i++) {\n            bytesArray[i] = _bytes32[i];\n        }\n        return string(bytesArray);\n    }\n}\n",
  "sourcePath": "/home/raneet/Desktop/chainlink-hackathon/contracts/RealEstateAPIConsumer.sol",
  "compiler": {
    "name": "solc",
    "version": "0.6.6+commit.6c089d02.Emscripten.clang"
  },
  "schemaVersion": "3.2.0",
  "updatedAt": "2020-09-26T15:19:32.427Z",
  "devdoc": {
    "methods": {}
  },
  "userdoc": {
    "methods": {}
  }
}