{
  "contractName": "RealestateVerification",
  "abi": [
    {
      "inputs": [
        {
          "internalType": "address",
          "name": "_propOwner",
          "type": "address"
        }
      ],
      "name": "isVerified",
      "outputs": [
        {
          "internalType": "bool",
          "name": "",
          "type": "bool"
        }
      ],
      "stateMutability": "view",
      "type": "function"
    },
    {
      "inputs": [
        {
          "internalType": "address",
          "name": "_propOwner",
          "type": "address"
        }
      ],
      "name": "verificationProcess",
      "outputs": [],
      "stateMutability": "nonpayable",
      "type": "function"
    }
  ],
  "bytecode": "0x608060405234801561001057600080fd5b50610261806100206000396000f3fe608060405234801561001057600080fd5b50600436106100365760003560e01c80636b9b2a4c1461003b578063b9209e331461007f575b600080fd5b61007d6004803603602081101561005157600080fd5b81019080803573ffffffffffffffffffffffffffffffffffffffff1690602001909291905050506100db565b005b6100c16004803603602081101561009557600080fd5b81019080803573ffffffffffffffffffffffffffffffffffffffff1690602001909291905050506101d6565b604051808215151515815260200191505060405180910390f35b8073ffffffffffffffffffffffffffffffffffffffff163373ffffffffffffffffffffffffffffffffffffffff161461017c576040517f08c379a00000000000000000000000000000000000000000000000000000000081526004018080602001828103825260168152602001807f4e6f74207468652070726f7065727479206f776e65720000000000000000000081525060200191505060405180910390fd5b60016000808373ffffffffffffffffffffffffffffffffffffffff1673ffffffffffffffffffffffffffffffffffffffff16815260200190815260200160002060006101000a81548160ff02191690831515021790555050565b60008060008373ffffffffffffffffffffffffffffffffffffffff1673ffffffffffffffffffffffffffffffffffffffff16815260200190815260200160002060009054906101000a900460ff16905091905056fea2646970667358221220ebc93bcc3bab27c2ea2fe571de1c65eee31d8160f17f12a56c92223048017afc64736f6c63430006060033",
  "immutableReferences": {},
  "source": "//SPDX-License-Identifier: MIT\npragma solidity >=0.6.0 <0.7.0 ;\n\n/**\n * @dev Contract for verification of a real estate property\n * before it gets tokenized\n **/\ncontract RealestateVerification {\n\n  mapping (address => bool) internal verified;\n\n  function isVerified(address _propOwner) public view returns(bool) {\n    return verified[_propOwner];\n  }\n\n  function verificationProcess(address _propOwner) public {\n    require(msg.sender == _propOwner, \"Not the property owner\");\n    //Some verification process to be done here\n    //If verified mark the property owner address as verified\n    verified[_propOwner] = true;\n  }\n}\n",
  "sourcePath": "/home/raneet/Desktop/chainlink-hackathon/contracts/RealestateVerification.sol",
  "compiler": {
    "name": "solc",
    "version": "0.6.6+commit.6c089d02.Emscripten.clang"
  },
  "schemaVersion": "3.2.0",
  "updatedAt": "2020-09-26T15:19:32.444Z",
  "devdoc": {
    "details": "Contract for verification of a real estate property before it gets tokenized*",
    "methods": {}
  },
  "userdoc": {
    "methods": {}
  }
}