{
  "contractName": "RealestateToken",
  "abi": [
    {
      "inputs": [
        {
          "internalType": "address",
          "name": "_owner",
          "type": "address"
        },
        {
          "internalType": "address",
          "name": "consumerAPIAdress",
          "type": "address"
        },
        {
          "internalType": "string",
          "name": "_name",
          "type": "string"
        }
      ],
      "stateMutability": "nonpayable",
      "type": "constructor"
    },
    {
      "anonymous": false,
      "inputs": [
        {
          "indexed": true,
          "internalType": "address",
          "name": "owner",
          "type": "address"
        },
        {
          "indexed": true,
          "internalType": "address",
          "name": "shareholder",
          "type": "address"
        }
      ],
      "name": "AddShareholder",
      "type": "event"
    },
    {
      "anonymous": false,
      "inputs": [
        {
          "indexed": true,
          "internalType": "address",
          "name": "owner",
          "type": "address"
        },
        {
          "indexed": true,
          "internalType": "address",
          "name": "spender",
          "type": "address"
        },
        {
          "indexed": false,
          "internalType": "uint256",
          "name": "value",
          "type": "uint256"
        }
      ],
      "name": "Approval",
      "type": "event"
    },
    {
      "anonymous": false,
      "inputs": [
        {
          "indexed": true,
          "internalType": "address",
          "name": "previousOwner",
          "type": "address"
        },
        {
          "indexed": true,
          "internalType": "address",
          "name": "newOwner",
          "type": "address"
        }
      ],
      "name": "OwnershipTransferred",
      "type": "event"
    },
    {
      "anonymous": false,
      "inputs": [
        {
          "indexed": true,
          "internalType": "address",
          "name": "owner",
          "type": "address"
        },
        {
          "indexed": true,
          "internalType": "address",
          "name": "shareholder",
          "type": "address"
        }
      ],
      "name": "RemoveShareholder",
      "type": "event"
    },
    {
      "anonymous": false,
      "inputs": [
        {
          "indexed": true,
          "internalType": "address",
          "name": "from",
          "type": "address"
        },
        {
          "indexed": true,
          "internalType": "address",
          "name": "to",
          "type": "address"
        },
        {
          "indexed": false,
          "internalType": "uint256",
          "name": "value",
          "type": "uint256"
        }
      ],
      "name": "Transfer",
      "type": "event"
    },
    {
      "anonymous": false,
      "inputs": [
        {
          "indexed": true,
          "internalType": "address",
          "name": "sender",
          "type": "address"
        },
        {
          "indexed": true,
          "internalType": "address",
          "name": "receipent",
          "type": "address"
        },
        {
          "indexed": false,
          "internalType": "uint256",
          "name": "amount",
          "type": "uint256"
        }
      ],
      "name": "TransferRevenue",
      "type": "event"
    },
    {
      "inputs": [
        {
          "internalType": "address",
          "name": "owner",
          "type": "address"
        },
        {
          "internalType": "address",
          "name": "spender",
          "type": "address"
        }
      ],
      "name": "allowance",
      "outputs": [
        {
          "internalType": "uint256",
          "name": "",
          "type": "uint256"
        }
      ],
      "stateMutability": "view",
      "type": "function"
    },
    {
      "inputs": [
        {
          "internalType": "address",
          "name": "spender",
          "type": "address"
        },
        {
          "internalType": "uint256",
          "name": "amount",
          "type": "uint256"
        }
      ],
      "name": "approve",
      "outputs": [
        {
          "internalType": "bool",
          "name": "",
          "type": "bool"
        }
      ],
      "stateMutability": "nonpayable",
      "type": "function"
    },
    {
      "inputs": [
        {
          "internalType": "address",
          "name": "account",
          "type": "address"
        }
      ],
      "name": "balanceOf",
      "outputs": [
        {
          "internalType": "uint256",
          "name": "",
          "type": "uint256"
        }
      ],
      "stateMutability": "view",
      "type": "function"
    },
    {
      "inputs": [],
      "name": "collected",
      "outputs": [
        {
          "internalType": "uint256",
          "name": "",
          "type": "uint256"
        }
      ],
      "stateMutability": "view",
      "type": "function"
    },
    {
      "inputs": [],
      "name": "decimals",
      "outputs": [
        {
          "internalType": "uint8",
          "name": "",
          "type": "uint8"
        }
      ],
      "stateMutability": "view",
      "type": "function"
    },
    {
      "inputs": [
        {
          "internalType": "address",
          "name": "spender",
          "type": "address"
        },
        {
          "internalType": "uint256",
          "name": "subtractedValue",
          "type": "uint256"
        }
      ],
      "name": "decreaseAllowance",
      "outputs": [
        {
          "internalType": "bool",
          "name": "",
          "type": "bool"
        }
      ],
      "stateMutability": "nonpayable",
      "type": "function"
    },
    {
      "inputs": [
        {
          "internalType": "address",
          "name": "spender",
          "type": "address"
        },
        {
          "internalType": "uint256",
          "name": "addedValue",
          "type": "uint256"
        }
      ],
      "name": "increaseAllowance",
      "outputs": [
        {
          "internalType": "bool",
          "name": "",
          "type": "bool"
        }
      ],
      "stateMutability": "nonpayable",
      "type": "function"
    },
    {
      "inputs": [],
      "name": "name",
      "outputs": [
        {
          "internalType": "string",
          "name": "",
          "type": "string"
        }
      ],
      "stateMutability": "view",
      "type": "function"
    },
    {
      "inputs": [],
      "name": "owner",
      "outputs": [
        {
          "internalType": "address",
          "name": "",
          "type": "address"
        }
      ],
      "stateMutability": "view",
      "type": "function"
    },
    {
      "inputs": [],
      "name": "renounceOwnership",
      "outputs": [],
      "stateMutability": "nonpayable",
      "type": "function"
    },
    {
      "inputs": [],
      "name": "symbol",
      "outputs": [
        {
          "internalType": "string",
          "name": "",
          "type": "string"
        }
      ],
      "stateMutability": "view",
      "type": "function"
    },
    {
      "inputs": [],
      "name": "totalShares",
      "outputs": [
        {
          "internalType": "uint256",
          "name": "",
          "type": "uint256"
        }
      ],
      "stateMutability": "view",
      "type": "function"
    },
    {
      "inputs": [],
      "name": "totalSupply",
      "outputs": [
        {
          "internalType": "uint256",
          "name": "",
          "type": "uint256"
        }
      ],
      "stateMutability": "view",
      "type": "function"
    },
    {
      "inputs": [
        {
          "internalType": "address",
          "name": "recipient",
          "type": "address"
        },
        {
          "internalType": "uint256",
          "name": "amount",
          "type": "uint256"
        }
      ],
      "name": "transfer",
      "outputs": [
        {
          "internalType": "bool",
          "name": "",
          "type": "bool"
        }
      ],
      "stateMutability": "nonpayable",
      "type": "function"
    },
    {
      "inputs": [
        {
          "internalType": "address",
          "name": "sender",
          "type": "address"
        },
        {
          "internalType": "address",
          "name": "recipient",
          "type": "address"
        },
        {
          "internalType": "uint256",
          "name": "amount",
          "type": "uint256"
        }
      ],
      "name": "transferFrom",
      "outputs": [
        {
          "internalType": "bool",
          "name": "",
          "type": "bool"
        }
      ],
      "stateMutability": "nonpayable",
      "type": "function"
    },
    {
      "inputs": [
        {
          "internalType": "address",
          "name": "newOwner",
          "type": "address"
        }
      ],
      "name": "transferOwnership",
      "outputs": [],
      "stateMutability": "nonpayable",
      "type": "function"
    },
    {
      "inputs": [],
      "name": "accumulate",
      "outputs": [],
      "stateMutability": "payable",
      "type": "function"
    },
    {
      "inputs": [
        {
          "internalType": "address",
          "name": "_address",
          "type": "address"
        }
      ],
      "name": "isShareHolder",
      "outputs": [
        {
          "internalType": "bool",
          "name": "",
          "type": "bool"
        }
      ],
      "stateMutability": "view",
      "type": "function"
    },
    {
      "inputs": [
        {
          "internalType": "address",
          "name": "_address",
          "type": "address"
        }
      ],
      "name": "addShareHolder",
      "outputs": [],
      "stateMutability": "nonpayable",
      "type": "function"
    },
    {
      "inputs": [
        {
          "internalType": "address",
          "name": "_address",
          "type": "address"
        }
      ],
      "name": "removeShareHolder",
      "outputs": [],
      "stateMutability": "nonpayable",
      "type": "function"
    }
  ],
  "bytecode": "0x6080604052604051620000129062000757565b604051809103906000f0801580156200002f573d6000803e3d6000fd5b50600a60006101000a81548173ffffffffffffffffffffffffffffffffffffffff021916908373ffffffffffffffffffffffffffffffffffffffff1602179055503480156200007d57600080fd5b50604051620028343803806200283483398181016040526060811015620000a357600080fd5b81019080805190602001909291908051906020019092919080516040519392919084640100000000821115620000d857600080fd5b83820191506020820185811115620000ef57600080fd5b82518660018202830111640100000000821117156200010d57600080fd5b8083526020830192505050908051906020019080838360005b838110156200014357808201518184015260208101905062000126565b50505050905090810190601f168015620001715780820380516001836020036101000a031916815260200191505b506040525050506040518060400160405280600f81526020017f5265616c457374617465546f6b656e00000000000000000000000000000000008152506040518060400160405280600381526020017f52455400000000000000000000000000000000000000000000000000000000008152508160039080519060200190620001fc92919062000765565b5080600490805190602001906200021592919062000765565b506012600560006101000a81548160ff021916908360ff1602179055505050600062000246620004e360201b60201c565b905080600560016101000a81548173ffffffffffffffffffffffffffffffffffffffff021916908373ffffffffffffffffffffffffffffffffffffffff1602179055508073ffffffffffffffffffffffffffffffffffffffff16600073ffffffffffffffffffffffffffffffffffffffff167f8be0079c531659141344cd1fd0a4f28419497f9722a3daafe3b4186f6b6457e060405160405180910390a35081600b60006101000a81548173ffffffffffffffffffffffffffffffffffffffff021916908373ffffffffffffffffffffffffffffffffffffffff160217905550600b60009054906101000a900473ffffffffffffffffffffffffffffffffffffffff1673ffffffffffffffffffffffffffffffffffffffff1663903b8dca826040518263ffffffff1660e01b81526004018080602001828103825283818151815260200191508051906020019080838360005b83811015620003b657808201518184015260208101905062000399565b50505050905090810190601f168015620003e45780820380516001836020036101000a031916815260200191505b5092505050600060405180830381600087803b1580156200040457600080fd5b505af115801562000419573d6000803e3d6000fd5b505050506000600b60009054906101000a900473ffffffffffffffffffffffffffffffffffffffff1673ffffffffffffffffffffffffffffffffffffffff166389e7995f6040518163ffffffff1660e01b815260040160206040518083038186803b1580156200048857600080fd5b505afa1580156200049d573d6000803e3d6000fd5b505050506040513d6020811015620004b457600080fd5b81019080805190602001909291905050509050620004d98482620004eb60201b60201c565b5050505062000814565b600033905090565b600073ffffffffffffffffffffffffffffffffffffffff168273ffffffffffffffffffffffffffffffffffffffff1614156200058f576040517f08c379a000000000000000000000000000000000000000000000000000000000815260040180806020018281038252601f8152602001807f45524332303a206d696e7420746f20746865207a65726f20616464726573730081525060200191505060405180910390fd5b620005a360008383620006c960201b60201c565b620005bf81600254620006ce60201b62001b6e1790919060201c565b6002819055506200061d816000808573ffffffffffffffffffffffffffffffffffffffff1673ffffffffffffffffffffffffffffffffffffffff16815260200190815260200160002054620006ce60201b62001b6e1790919060201c565b6000808473ffffffffffffffffffffffffffffffffffffffff1673ffffffffffffffffffffffffffffffffffffffff168152602001908152602001600020819055508173ffffffffffffffffffffffffffffffffffffffff16600073ffffffffffffffffffffffffffffffffffffffff167fddf252ad1be2c89b69c2b068fc378daa952ba7f163c4a11628f55a4df523b3ef836040518082815260200191505060405180910390a35050565b505050565b6000808284019050838110156200074d576040517f08c379a000000000000000000000000000000000000000000000000000000000815260040180806020018281038252601b8152602001807f536166654d6174683a206164646974696f6e206f766572666c6f77000000000081525060200191505060405180910390fd5b8091505092915050565b61028180620025b383390190565b828054600181600116156101000203166002900490600052602060002090601f016020900481019282601f10620007a857805160ff1916838001178555620007d9565b82800160010185558215620007d9579182015b82811115620007d8578251825591602001919060010190620007bb565b5b509050620007e89190620007ec565b5090565b6200081191905b808211156200080d576000816000905550600101620007f3565b5090565b90565b611d8f80620008246000396000f3fe60806040526004361061011f5760003560e01c80637a33f63c116100a0578063a53aeb4e11610064578063a53aeb4e1461066f578063a9059cbb14610679578063af769c64146106ec578063dd62ed3e1461073d578063f2fde38b146107c25761011f565b80637a33f63c1461048157806384bcefd4146104ea5780638da5cb5b1461051557806395d89b411461056c578063a457c2d7146105fc5761011f565b806339509351116100e757806339509351146103165780633a98ef39146103895780635ab59720146103b457806370a0823114610405578063715018a61461046a5761011f565b806306fdde0314610124578063095ea7b3146101b457806318160ddd1461022757806323b872dd14610252578063313ce567146102e5575b600080fd5b34801561013057600080fd5b50610139610813565b6040518080602001828103825283818151815260200191508051906020019080838360005b8381101561017957808201518184015260208101905061015e565b50505050905090810190601f1680156101a65780820380516001836020036101000a031916815260200191505b509250505060405180910390f35b3480156101c057600080fd5b5061020d600480360360408110156101d757600080fd5b81019080803573ffffffffffffffffffffffffffffffffffffffff169060200190929190803590602001909291905050506108b5565b604051808215151515815260200191505060405180910390f35b34801561023357600080fd5b5061023c6108d3565b6040518082815260200191505060405180910390f35b34801561025e57600080fd5b506102cb6004803603606081101561027557600080fd5b81019080803573ffffffffffffffffffffffffffffffffffffffff169060200190929190803573ffffffffffffffffffffffffffffffffffffffff169060200190929190803590602001909291905050506108dd565b604051808215151515815260200191505060405180910390f35b3480156102f157600080fd5b506102fa6109b6565b604051808260ff1660ff16815260200191505060405180910390f35b34801561032257600080fd5b5061036f6004803603604081101561033957600080fd5b81019080803573ffffffffffffffffffffffffffffffffffffffff169060200190929190803590602001909291905050506109cd565b604051808215151515815260200191505060405180910390f35b34801561039557600080fd5b5061039e610a80565b6040518082815260200191505060405180910390f35b3480156103c057600080fd5b50610403600480360360208110156103d757600080fd5b81019080803573ffffffffffffffffffffffffffffffffffffffff169060200190929190505050610a86565b005b34801561041157600080fd5b506104546004803603602081101561042857600080fd5b81019080803573ffffffffffffffffffffffffffffffffffffffff169060200190929190505050610c89565b6040518082815260200191505060405180910390f35b34801561047657600080fd5b5061047f610cd1565b005b34801561048d57600080fd5b506104d0600480360360208110156104a457600080fd5b81019080803573ffffffffffffffffffffffffffffffffffffffff169060200190929190505050610e5c565b604051808215151515815260200191505060405180910390f35b3480156104f657600080fd5b506104ff610eb2565b6040518082815260200191505060405180910390f35b34801561052157600080fd5b5061052a610eb8565b604051808273ffffffffffffffffffffffffffffffffffffffff1673ffffffffffffffffffffffffffffffffffffffff16815260200191505060405180910390f35b34801561057857600080fd5b50610581610ee2565b6040518080602001828103825283818151815260200191508051906020019080838360005b838110156105c15780820151818401526020810190506105a6565b50505050905090810190601f1680156105ee5780820380516001836020036101000a031916815260200191505b509250505060405180910390f35b34801561060857600080fd5b506106556004803603604081101561061f57600080fd5b81019080803573ffffffffffffffffffffffffffffffffffffffff16906020019092919080359060200190929190505050610f84565b604051808215151515815260200191505060405180910390f35b610677611051565b005b34801561068557600080fd5b506106d26004803603604081101561069c57600080fd5b81019080803573ffffffffffffffffffffffffffffffffffffffff169060200190929190803590602001909291905050506110c2565b604051808215151515815260200191505060405180910390f35b3480156106f857600080fd5b5061073b6004803603602081101561070f57600080fd5b81019080803573ffffffffffffffffffffffffffffffffffffffff1690602001909291905050506110e0565b005b34801561074957600080fd5b506107ac6004803603604081101561076057600080fd5b81019080803573ffffffffffffffffffffffffffffffffffffffff169060200190929190803573ffffffffffffffffffffffffffffffffffffffff169060200190929190505050611357565b6040518082815260200191505060405180910390f35b3480156107ce57600080fd5b50610811600480360360208110156107e557600080fd5b81019080803573ffffffffffffffffffffffffffffffffffffffff1690602001909291905050506113de565b005b606060038054600181600116156101000203166002900480601f0160208091040260200160405190810160405280929190818152602001828054600181600116156101000203166002900480156108ab5780601f10610880576101008083540402835291602001916108ab565b820191906000526020600020905b81548152906001019060200180831161088e57829003601f168201915b5050505050905090565b60006108c96108c26115ee565b84846115f6565b6001905092915050565b6000600254905090565b60006108ea8484846117ed565b6109ab846108f66115ee565b6109a685604051806060016040528060288152602001611cc460289139600160008b73ffffffffffffffffffffffffffffffffffffffff1673ffffffffffffffffffffffffffffffffffffffff168152602001908152602001600020600061095c6115ee565b73ffffffffffffffffffffffffffffffffffffffff1673ffffffffffffffffffffffffffffffffffffffff16815260200190815260200160002054611aae9092919063ffffffff16565b6115f6565b600190509392505050565b6000600560009054906101000a900460ff16905090565b6000610a766109da6115ee565b84610a7185600160006109eb6115ee565b73ffffffffffffffffffffffffffffffffffffffff1673ffffffffffffffffffffffffffffffffffffffff16815260200190815260200160002060008973ffffffffffffffffffffffffffffffffffffffff1673ffffffffffffffffffffffffffffffffffffffff16815260200190815260200160002054611b6e90919063ffffffff16565b6115f6565b6001905092915050565b60095481565b610a8e6115ee565b73ffffffffffffffffffffffffffffffffffffffff16600560019054906101000a900473ffffffffffffffffffffffffffffffffffffffff1673ffffffffffffffffffffffffffffffffffffffff1614610b50576040517f08c379a00000000000000000000000000000000000000000000000000000000081526004018080602001828103825260208152602001807f4f776e61626c653a2063616c6c6572206973206e6f7420746865206f776e657281525060200191505060405180910390fd5b80610b5a81610e5c565b610bcc576040517f08c379a00000000000000000000000000000000000000000000000000000000081526004018080602001828103825260118152602001807f4e6f742061207368617265686f6c64657200000000000000000000000000000081525060200191505060405180910390fd5b6000600660008473ffffffffffffffffffffffffffffffffffffffff1673ffffffffffffffffffffffffffffffffffffffff16815260200190815260200160002060006101000a81548160ff0219169083151502179055508173ffffffffffffffffffffffffffffffffffffffff16610c43610eb8565b73ffffffffffffffffffffffffffffffffffffffff167f799b882a9ad79c466529750fd63520884a75f093d5e916998b362ee04a6a6e0160405160405180910390a35050565b60008060008373ffffffffffffffffffffffffffffffffffffffff1673ffffffffffffffffffffffffffffffffffffffff168152602001908152602001600020549050919050565b610cd96115ee565b73ffffffffffffffffffffffffffffffffffffffff16600560019054906101000a900473ffffffffffffffffffffffffffffffffffffffff1673ffffffffffffffffffffffffffffffffffffffff1614610d9b576040517f08c379a00000000000000000000000000000000000000000000000000000000081526004018080602001828103825260208152602001807f4f776e61626c653a2063616c6c6572206973206e6f7420746865206f776e657281525060200191505060405180910390fd5b600073ffffffffffffffffffffffffffffffffffffffff16600560019054906101000a900473ffffffffffffffffffffffffffffffffffffffff1673ffffffffffffffffffffffffffffffffffffffff167f8be0079c531659141344cd1fd0a4f28419497f9722a3daafe3b4186f6b6457e060405160405180910390a36000600560016101000a81548173ffffffffffffffffffffffffffffffffffffffff021916908373ffffffffffffffffffffffffffffffffffffffff160217905550565b6000600660008373ffffffffffffffffffffffffffffffffffffffff1673ffffffffffffffffffffffffffffffffffffffff16815260200190815260200160002060009054906101000a900460ff169050919050565b60085481565b6000600560019054906101000a900473ffffffffffffffffffffffffffffffffffffffff16905090565b606060048054600181600116156101000203166002900480601f016020809104026020016040519081016040528092919081815260200182805460018160011615610100020316600290048015610f7a5780601f10610f4f57610100808354040283529160200191610f7a565b820191906000526020600020905b815481529060010190602001808311610f5d57829003601f168201915b5050505050905090565b6000611047610f916115ee565b8461104285604051806060016040528060258152602001611d356025913960016000610fbb6115ee565b73ffffffffffffffffffffffffffffffffffffffff1673ffffffffffffffffffffffffffffffffffffffff16815260200190815260200160002060008a73ffffffffffffffffffffffffffffffffffffffff1673ffffffffffffffffffffffffffffffffffffffff16815260200190815260200160002054611aae9092919063ffffffff16565b6115f6565b6001905092915050565b61106634600854611b6e90919063ffffffff16565b60088190555060085460098190555034600760006110826115ee565b73ffffffffffffffffffffffffffffffffffffffff1673ffffffffffffffffffffffffffffffffffffffff16815260200190815260200160002081905550565b60006110d66110cf6115ee565b84846117ed565b6001905092915050565b6110e86115ee565b73ffffffffffffffffffffffffffffffffffffffff16600560019054906101000a900473ffffffffffffffffffffffffffffffffffffffff1673ffffffffffffffffffffffffffffffffffffffff16146111aa576040517f08c379a00000000000000000000000000000000000000000000000000000000081526004018080602001828103825260208152602001807f4f776e61626c653a2063616c6c6572206973206e6f7420746865206f776e657281525060200191505060405180910390fd5b6111c98173ffffffffffffffffffffffffffffffffffffffff16611bf6565b1561121f576040517f08c379a0000000000000000000000000000000000000000000000000000000008152600401808060200182810382526024815260200180611c326024913960400191505060405180910390fd5b61122881610e5c565b1561129b576040517f08c379a00000000000000000000000000000000000000000000000000000000081526004018080602001828103825260158152602001807f416c72656164792061207368617265686f6c646572000000000000000000000081525060200191505060405180910390fd5b6001600660008373ffffffffffffffffffffffffffffffffffffffff1673ffffffffffffffffffffffffffffffffffffffff16815260200190815260200160002060006101000a81548160ff0219169083151502179055508073ffffffffffffffffffffffffffffffffffffffff16611312610eb8565b73ffffffffffffffffffffffffffffffffffffffff167f7c2cc4b1f62a42b8608b2838821eaaedbda9faf0c99aede3d07a86a854bcd43460405160405180910390a350565b6000600160008473ffffffffffffffffffffffffffffffffffffffff1673ffffffffffffffffffffffffffffffffffffffff16815260200190815260200160002060008373ffffffffffffffffffffffffffffffffffffffff1673ffffffffffffffffffffffffffffffffffffffff16815260200190815260200160002054905092915050565b6113e66115ee565b73ffffffffffffffffffffffffffffffffffffffff16600560019054906101000a900473ffffffffffffffffffffffffffffffffffffffff1673ffffffffffffffffffffffffffffffffffffffff16146114a8576040517f08c379a00000000000000000000000000000000000000000000000000000000081526004018080602001828103825260208152602001807f4f776e61626c653a2063616c6c6572206973206e6f7420746865206f776e657281525060200191505060405180910390fd5b600073ffffffffffffffffffffffffffffffffffffffff168173ffffffffffffffffffffffffffffffffffffffff16141561152e576040517f08c379a0000000000000000000000000000000000000000000000000000000008152600401808060200182810382526026815260200180611c566026913960400191505060405180910390fd5b8073ffffffffffffffffffffffffffffffffffffffff16600560019054906101000a900473ffffffffffffffffffffffffffffffffffffffff1673ffffffffffffffffffffffffffffffffffffffff167f8be0079c531659141344cd1fd0a4f28419497f9722a3daafe3b4186f6b6457e060405160405180910390a380600560016101000a81548173ffffffffffffffffffffffffffffffffffffffff021916908373ffffffffffffffffffffffffffffffffffffffff16021790555050565b600033905090565b600073ffffffffffffffffffffffffffffffffffffffff168373ffffffffffffffffffffffffffffffffffffffff16141561167c576040517f08c379a0000000000000000000000000000000000000000000000000000000008152600401808060200182810382526024815260200180611d116024913960400191505060405180910390fd5b600073ffffffffffffffffffffffffffffffffffffffff168273ffffffffffffffffffffffffffffffffffffffff161415611702576040517f08c379a0000000000000000000000000000000000000000000000000000000008152600401808060200182810382526022815260200180611c7c6022913960400191505060405180910390fd5b80600160008573ffffffffffffffffffffffffffffffffffffffff1673ffffffffffffffffffffffffffffffffffffffff16815260200190815260200160002060008473ffffffffffffffffffffffffffffffffffffffff1673ffffffffffffffffffffffffffffffffffffffff168152602001908152602001600020819055508173ffffffffffffffffffffffffffffffffffffffff168373ffffffffffffffffffffffffffffffffffffffff167f8c5be1e5ebec7d5bd14f71427d1e84f3dd0314c0f7b2291e5b200ac8c7c3b925836040518082815260200191505060405180910390a3505050565b600073ffffffffffffffffffffffffffffffffffffffff168373ffffffffffffffffffffffffffffffffffffffff161415611873576040517f08c379a0000000000000000000000000000000000000000000000000000000008152600401808060200182810382526025815260200180611cec6025913960400191505060405180910390fd5b600073ffffffffffffffffffffffffffffffffffffffff168273ffffffffffffffffffffffffffffffffffffffff1614156118f9576040517f08c379a0000000000000000000000000000000000000000000000000000000008152600401808060200182810382526023815260200180611c0f6023913960400191505060405180910390fd5b611904838383611c09565b61196f81604051806060016040528060268152602001611c9e602691396000808773ffffffffffffffffffffffffffffffffffffffff1673ffffffffffffffffffffffffffffffffffffffff16815260200190815260200160002054611aae9092919063ffffffff16565b6000808573ffffffffffffffffffffffffffffffffffffffff1673ffffffffffffffffffffffffffffffffffffffff16815260200190815260200160002081905550611a02816000808573ffffffffffffffffffffffffffffffffffffffff1673ffffffffffffffffffffffffffffffffffffffff16815260200190815260200160002054611b6e90919063ffffffff16565b6000808473ffffffffffffffffffffffffffffffffffffffff1673ffffffffffffffffffffffffffffffffffffffff168152602001908152602001600020819055508173ffffffffffffffffffffffffffffffffffffffff168373ffffffffffffffffffffffffffffffffffffffff167fddf252ad1be2c89b69c2b068fc378daa952ba7f163c4a11628f55a4df523b3ef836040518082815260200191505060405180910390a3505050565b6000838311158290611b5b576040517f08c379a00000000000000000000000000000000000000000000000000000000081526004018080602001828103825283818151815260200191508051906020019080838360005b83811015611b20578082015181840152602081019050611b05565b50505050905090810190601f168015611b4d5780820380516001836020036101000a031916815260200191505b509250505060405180910390fd5b5060008385039050809150509392505050565b600080828401905083811015611bec576040517f08c379a000000000000000000000000000000000000000000000000000000000815260040180806020018281038252601b8152602001807f536166654d6174683a206164646974696f6e206f766572666c6f77000000000081525060200191505060405180910390fd5b8091505092915050565b600080823b905060008111915050919050565b50505056fe45524332303a207472616e7366657220746f20746865207a65726f20616464726573734f6e6c7920454f412061726520616c6c6f776564206173207368617265686f6c646572734f776e61626c653a206e6577206f776e657220697320746865207a65726f206164647265737345524332303a20617070726f766520746f20746865207a65726f206164647265737345524332303a207472616e7366657220616d6f756e7420657863656564732062616c616e636545524332303a207472616e7366657220616d6f756e74206578636565647320616c6c6f77616e636545524332303a207472616e736665722066726f6d20746865207a65726f206164647265737345524332303a20617070726f76652066726f6d20746865207a65726f206164647265737345524332303a2064656372656173656420616c6c6f77616e63652062656c6f77207a65726fa2646970667358221220293f2da611838eb6ccd6872ebbed6f9d45cce0631587bd523ba070859a585a4d64736f6c63430006060033608060405234801561001057600080fd5b50610261806100206000396000f3fe608060405234801561001057600080fd5b50600436106100365760003560e01c80636b9b2a4c1461003b578063b9209e331461007f575b600080fd5b61007d6004803603602081101561005157600080fd5b81019080803573ffffffffffffffffffffffffffffffffffffffff1690602001909291905050506100db565b005b6100c16004803603602081101561009557600080fd5b81019080803573ffffffffffffffffffffffffffffffffffffffff1690602001909291905050506101d6565b604051808215151515815260200191505060405180910390f35b8073ffffffffffffffffffffffffffffffffffffffff163373ffffffffffffffffffffffffffffffffffffffff161461017c576040517f08c379a00000000000000000000000000000000000000000000000000000000081526004018080602001828103825260168152602001807f4e6f74207468652070726f7065727479206f776e65720000000000000000000081525060200191505060405180910390fd5b60016000808373ffffffffffffffffffffffffffffffffffffffff1673ffffffffffffffffffffffffffffffffffffffff16815260200190815260200160002060006101000a81548160ff02191690831515021790555050565b60008060008373ffffffffffffffffffffffffffffffffffffffff1673ffffffffffffffffffffffffffffffffffffffff16815260200190815260200160002060009054906101000a900460ff16905091905056fea2646970667358221220ebc93bcc3bab27c2ea2fe571de1c65eee31d8160f17f12a56c92223048017afc64736f6c63430006060033",
  "immutableReferences": {},
  "source": "//SPDX-License-Identifier: MIT\npragma solidity >=0.6.0 <0.7.0;\n\nimport \"@openzeppelin/contracts/token/ERC20/ERC20.sol\";\nimport \"@openzeppelin/contracts/access/Ownable.sol\";\nimport \"@openzeppelin/contracts/utils/Address.sol\";\nimport \"./RealestateVerification.sol\";\nimport \"./RealEstateAPIConsumer.sol\";\n\ncontract RealestateToken is ERC20, Ownable {\n  using SafeMath for uint;\n  using Address  for address;\n\n  event AddShareholder (address indexed owner, address indexed shareholder);\n  event RemoveShareholder (address indexed owner, address indexed shareholder);\n  event TransferRevenue (address indexed sender, address indexed receipent, uint amount);\n\n\n  mapping(address => bool) internal shareholders;\n  mapping (address => uint) internal share;\n  uint public collected;\n  uint public totalShares;\n\n  RealestateVerification contractInstance = new RealestateVerification();\n  RealEstateAPIConsumer consumer ;\n\n  modifier checkShareholder(address _address) {\n    require(isShareHolder(_address), \"Not a shareholder\");\n   _;\n  }\n\n  constructor(address _owner, address consumerAPIAdress, string memory _name) public ERC20(\"RealEstateToken\", \"RET\"){\n    //require(contractInstance.isVerified(_owner), \"property not verified\");\n    consumer = RealEstateAPIConsumer(consumerAPIAdress);\n    consumer.realestateArea(_name);\n    uint supply = consumer.surfaceArea();\n    _mint(_owner, supply);\n  }\n\n  function accumulate() external payable {\n    //TODO find a formula to convert amount to shares\n    //This is a dummy\n\n    collected = collected.add(msg.value);\n    totalShares = collected ;\n    share[_msgSender()] = msg.value;\n  }\n\n  function isShareHolder(address _address) public view returns (bool){\n    return shareholders[_address];\n  }\n\n/**\n * @dev function to add a shareholder\n * only allows EOAs to be a shareholder\n */\n\n  function addShareHolder(address _address) public onlyOwner {\n    require(!_address.isContract(), \"Only EOA are allowed as shareholders\");\n    require(!isShareHolder(_address), \"Already a shareholder\");\n    shareholders[_address] = true;\n    emit AddShareholder(owner(), _address);\n  }\n\n  function removeShareHolder(address _address) public onlyOwner checkShareholder(_address) {\n    shareholders[_address] = false;\n    emit RemoveShareholder(owner(), _address);\n\n  }\n\n  //need to figure out, is it to be transfer or distribute\n  function returnRevenue(address receipent, uint amount) internal checkShareholder(receipent) returns (bool) {\n    _transfer(_msgSender(), receipent, amount);\n    emit TransferRevenue(_msgSender(), receipent, amount);\n    return true;\n  }\n\n\n /* function distributeRevenue(address _address, string memory _name) public checkShareholder(_address){\n    //TODO Formulate appropriate method to distribute the shares. This is a dummy\n\n    // require(share[_address] > 0 , \"You don't own any shares\");\n    // RealEstateAPIConsumer instance = new  RealEstateAPIConsumer();\n    //\n    // //TODO PLEASE CHECK WHETHER THIS IS THE CORRECT WAY OF RETRIEVING THE CLOSE PRICE !\n    //\n    // instance.realestatePrice(_name);\n    // uint256 closePrice = instance.closePrice();\n    // uint individualProfit = share[_address].div(totalShares).mul(closePrice);\n    // returnRevenue(_address, individualProfit);\n  }*/\n}\n",
  "sourcePath": "/home/raneet/Desktop/chainlink-hackathon/contracts/RealEstateToken.sol",
  "compiler": {
    "name": "solc",
    "version": "0.6.6+commit.6c089d02.Emscripten.clang"
  },
  "schemaVersion": "3.2.0",
  "updatedAt": "2020-09-26T15:19:32.440Z",
  "devdoc": {
    "methods": {
      "addShareHolder(address)": {
        "details": "function to add a shareholder only allows EOAs to be a shareholder"
      },
      "allowance(address,address)": {
        "details": "See {IERC20-allowance}."
      },
      "approve(address,uint256)": {
        "details": "See {IERC20-approve}.     * Requirements:     * - `spender` cannot be the zero address."
      },
      "balanceOf(address)": {
        "details": "See {IERC20-balanceOf}."
      },
      "decimals()": {
        "details": "Returns the number of decimals used to get its user representation. For example, if `decimals` equals `2`, a balance of `505` tokens should be displayed to a user as `5,05` (`505 / 10 ** 2`).     * Tokens usually opt for a value of 18, imitating the relationship between Ether and Wei. This is the value {ERC20} uses, unless {_setupDecimals} is called.     * NOTE: This information is only used for _display_ purposes: it in no way affects any of the arithmetic of the contract, including {IERC20-balanceOf} and {IERC20-transfer}."
      },
      "decreaseAllowance(address,uint256)": {
        "details": "Atomically decreases the allowance granted to `spender` by the caller.     * This is an alternative to {approve} that can be used as a mitigation for problems described in {IERC20-approve}.     * Emits an {Approval} event indicating the updated allowance.     * Requirements:     * - `spender` cannot be the zero address. - `spender` must have allowance for the caller of at least `subtractedValue`."
      },
      "increaseAllowance(address,uint256)": {
        "details": "Atomically increases the allowance granted to `spender` by the caller.     * This is an alternative to {approve} that can be used as a mitigation for problems described in {IERC20-approve}.     * Emits an {Approval} event indicating the updated allowance.     * Requirements:     * - `spender` cannot be the zero address."
      },
      "name()": {
        "details": "Returns the name of the token."
      },
      "owner()": {
        "details": "Returns the address of the current owner."
      },
      "renounceOwnership()": {
        "details": "Leaves the contract without owner. It will not be possible to call `onlyOwner` functions anymore. Can only be called by the current owner.     * NOTE: Renouncing ownership will leave the contract without an owner, thereby removing any functionality that is only available to the owner."
      },
      "symbol()": {
        "details": "Returns the symbol of the token, usually a shorter version of the name."
      },
      "totalSupply()": {
        "details": "See {IERC20-totalSupply}."
      },
      "transfer(address,uint256)": {
        "details": "See {IERC20-transfer}.     * Requirements:     * - `recipient` cannot be the zero address. - the caller must have a balance of at least `amount`."
      },
      "transferFrom(address,address,uint256)": {
        "details": "See {IERC20-transferFrom}.     * Emits an {Approval} event indicating the updated allowance. This is not required by the EIP. See the note at the beginning of {ERC20};     * Requirements: - `sender` and `recipient` cannot be the zero address. - `sender` must have a balance of at least `amount`. - the caller must have allowance for ``sender``'s tokens of at least `amount`."
      },
      "transferOwnership(address)": {
        "details": "Transfers ownership of the contract to a new account (`newOwner`). Can only be called by the current owner."
      }
    }
  },
  "userdoc": {
    "methods": {}
  }
}