{
  "contractName": "RealEstateAPIConsumer",
  "abi": [
    {
      "inputs": [],
      "stateMutability": "nonpayable",
      "type": "constructor"
    },
    {
      "anonymous": false,
      "inputs": [
        {
          "indexed": true,
          "internalType": "bytes32",
          "name": "id",
          "type": "bytes32"
        }
      ],
      "name": "ChainlinkCancelled",
      "type": "event"
    },
    {
      "anonymous": false,
      "inputs": [
        {
          "indexed": true,
          "internalType": "bytes32",
          "name": "id",
          "type": "bytes32"
        }
      ],
      "name": "ChainlinkFulfilled",
      "type": "event"
    },
    {
      "anonymous": false,
      "inputs": [
        {
          "indexed": true,
          "internalType": "bytes32",
          "name": "id",
          "type": "bytes32"
        }
      ],
      "name": "ChainlinkRequested",
      "type": "event"
    },
    {
      "inputs": [],
      "name": "latestRequestId",
      "outputs": [
        {
          "internalType": "bytes32",
          "name": "",
          "type": "bytes32"
        }
      ],
      "stateMutability": "view",
      "type": "function",
      "constant": true
    },
    {
      "inputs": [],
      "name": "price",
      "outputs": [
        {
          "internalType": "uint256",
          "name": "",
          "type": "uint256"
        }
      ],
      "stateMutability": "view",
      "type": "function",
      "constant": true
    },
    {
      "inputs": [],
      "name": "rent",
      "outputs": [
        {
          "internalType": "uint256",
          "name": "",
          "type": "uint256"
        }
      ],
      "stateMutability": "view",
      "type": "function",
      "constant": true
    },
    {
      "inputs": [],
      "name": "surfaceArea",
      "outputs": [
        {
          "internalType": "uint256",
          "name": "",
          "type": "uint256"
        }
      ],
      "stateMutability": "view",
      "type": "function",
      "constant": true
    },
    {
      "inputs": [],
      "name": "tokenHash",
      "outputs": [
        {
          "internalType": "bytes32",
          "name": "",
          "type": "bytes32"
        }
      ],
      "stateMutability": "view",
      "type": "function",
      "constant": true
    },
    {
      "inputs": [
        {
          "internalType": "string",
          "name": "_name",
          "type": "string"
        }
      ],
      "name": "realEstateData",
      "outputs": [],
      "stateMutability": "nonpayable",
      "type": "function"
    },
    {
      "inputs": [
        {
          "internalType": "string",
          "name": "_name",
          "type": "string"
        }
      ],
      "name": "returnClosePrice",
      "outputs": [],
      "stateMutability": "nonpayable",
      "type": "function"
    },
    {
      "inputs": [
        {
          "internalType": "bytes32",
          "name": "_requestId",
          "type": "bytes32"
        },
        {
          "internalType": "uint256",
          "name": "_price",
          "type": "uint256"
        }
      ],
      "name": "myCallback",
      "outputs": [],
      "stateMutability": "nonpayable",
      "type": "function"
    },
    {
      "inputs": [
        {
          "internalType": "string",
          "name": "_name",
          "type": "string"
        }
      ],
      "name": "getCurrentPriceByAddress",
      "outputs": [
        {
          "internalType": "uint256",
          "name": "",
          "type": "uint256"
        }
      ],
      "stateMutability": "view",
      "type": "function",
      "constant": true
    },
    {
      "inputs": [
        {
          "internalType": "bytes32",
          "name": "_requestId",
          "type": "bytes32"
        },
        {
          "internalType": "uint256",
          "name": "_surfaceArea",
          "type": "uint256"
        }
      ],
      "name": "fulfill",
      "outputs": [],
      "stateMutability": "nonpayable",
      "type": "function"
    },
    {
      "inputs": [
        {
          "internalType": "bytes32",
          "name": "_requestId",
          "type": "bytes32"
        },
        {
          "internalType": "uint256",
          "name": "_rent",
          "type": "uint256"
        }
      ],
      "name": "fulfillRent",
      "outputs": [],
      "stateMutability": "nonpayable",
      "type": "function"
    }
  ],
  "bytecode": "0x6080604052600160045534801561001557600080fd5b506100246100b460201b60201c565b73aa1dc356dc4b18f30c347798fd5379f3d77abc5b600660006101000a81548173ffffffffffffffffffffffffffffffffffffffff021916908373ffffffffffffffffffffffffffffffffffffffff1602179055507f633736666233333633343666346135353931633930636138323432303931643560078190555067016345785d8a000060088190555061019d565b61015773c89bd4e1632d3a43cb03aaad5262cbe4038bc57173ffffffffffffffffffffffffffffffffffffffff166338cc48316040518163ffffffff1660e01b815260040160206040518083038186803b15801561011157600080fd5b505afa158015610125573d6000803e3d6000fd5b505050506040513d602081101561013b57600080fd5b810190808051906020019092919050505061015960201b60201c565b565b80600260006101000a81548173ffffffffffffffffffffffffffffffffffffffff021916908373ffffffffffffffffffffffffffffffffffffffff16021790555050565b611654806101ac6000396000f3fe608060405234801561001057600080fd5b50600436106100a95760003560e01c806382996d9f1161007157806382996d9f1461024357806389e7995f14610261578063a035b1fe1461027f578063a4c6eeac1461029d578063a833834f14610358578063cca4947314610413576100a9565b8063117ba7f4146100ae5780631aa46f591461017d57806338ba91f01461019b5780634357855e146101d35780634d14290a1461020b575b600080fd5b610167600480360360208110156100c457600080fd5b81019080803590602001906401000000008111156100e157600080fd5b8201836020820111156100f357600080fd5b8035906020019184600183028401116401000000008311171561011557600080fd5b91908080601f016020809104026020016040519081016040528093929190818152602001838380828437600081840152601f19601f820116905080830192505050505050509192919290505050610431565b6040518082815260200191505060405180910390f35b610185610456565b6040518082815260200191505060405180910390f35b6101d1600480360360408110156101b157600080fd5b81019080803590602001909291908035906020019092919050505061045c565b005b610209600480360360408110156101e957600080fd5b8101908080359060200190929190803590602001909291905050506105d5565b005b6102416004803603604081101561022157600080fd5b8101908080359060200190929190803590602001909291905050506106fc565b005b61024b610823565b6040518082815260200191505060405180910390f35b610269610829565b6040518082815260200191505060405180910390f35b61028761082f565b6040518082815260200191505060405180910390f35b610356600480360360208110156102b357600080fd5b81019080803590602001906401000000008111156102d057600080fd5b8201836020820111156102e257600080fd5b8035906020019184600183028401116401000000008311171561030457600080fd5b91908080601f016020809104026020016040519081016040528093929190818152602001838380828437600081840152601f19601f820116905080830192505050505050509192919290505050610835565b005b6104116004803603602081101561036e57600080fd5b810190808035906020019064010000000081111561038b57600080fd5b82018360208201111561039d57600080fd5b803590602001918460018302840111640100000000831117156103bf57600080fd5b91908080601f016020809104026020016040519081016040528093929190818152602001838380828437600081840152601f19601f82011690508083019250505050505050919291929050505061084a565b005b61041b610983565b6040518082815260200191505060405180910390f35b6000600f600061044084610989565b8152602001908152602001600020549050919050565b600c5481565b816005600082815260200190815260200160002060009054906101000a900473ffffffffffffffffffffffffffffffffffffffff1673ffffffffffffffffffffffffffffffffffffffff163373ffffffffffffffffffffffffffffffffffffffff1614610514576040517f08c379a00000000000000000000000000000000000000000000000000000000081526004018080602001828103825260288152602001806115f76028913960400191505060405180910390fd5b6005600082815260200190815260200160002060006101000a81549073ffffffffffffffffffffffffffffffffffffffff0219169055807f7cc135e0cebb02c3480ae5d74d377283180a2601f8f644edf7987b009316c63a60405160405180910390a2600e600084815260200190815260200160002054600d81905550600e60008481526020019081526020016000206000905581600f6000600d5481526020019081526020016000208190555082600c8190555081600981905550505050565b816005600082815260200190815260200160002060009054906101000a900473ffffffffffffffffffffffffffffffffffffffff1673ffffffffffffffffffffffffffffffffffffffff163373ffffffffffffffffffffffffffffffffffffffff161461068d576040517f08c379a00000000000000000000000000000000000000000000000000000000081526004018080602001828103825260288152602001806115f76028913960400191505060405180910390fd5b6005600082815260200190815260200160002060006101000a81549073ffffffffffffffffffffffffffffffffffffffff0219169055807f7cc135e0cebb02c3480ae5d74d377283180a2601f8f644edf7987b009316c63a60405160405180910390a281600a81905550505050565b816005600082815260200190815260200160002060009054906101000a900473ffffffffffffffffffffffffffffffffffffffff1673ffffffffffffffffffffffffffffffffffffffff163373ffffffffffffffffffffffffffffffffffffffff16146107b4576040517f08c379a00000000000000000000000000000000000000000000000000000000081526004018080602001828103825260288152602001806115f76028913960400191505060405180910390fd5b6005600082815260200190815260200160002060006101000a81549073ffffffffffffffffffffffffffffffffffffffff0219169055807f7cc135e0cebb02c3480ae5d74d377283180a2601f8f644edf7987b009316c63a60405160405180910390a281600b81905550505050565b600b5481565b600a5481565b60095481565b61083e816109b4565b61084781610acf565b50565b61085261154c565b610866600754306338ba91f060e01b610bea565b90506108b26040518060400160405280600481526020017f6e616d65000000000000000000000000000000000000000000000000000000008152508383610c1b9092919063ffffffff16565b6109316040518060400160405280600881526020017f636f7079506174680000000000000000000000000000000000000000000000008152506040518060400160405280600a81526020017f636c6f736550726963650000000000000000000000000000000000000000000081525083610c1b9092919063ffffffff16565b61093a82610989565b600e600061096d600660009054906101000a900473ffffffffffffffffffffffffffffffffffffffff1685600854610c4e565b8152602001908152602001600020819055505050565b600d5481565b600060608290506000815114156109a6576000801b9150506109af565b60208301519150505b919050565b6109bc61154c565b6109d060075430634357855e60e01b610bea565b9050610a1c6040518060400160405280600481526020017f6e616d65000000000000000000000000000000000000000000000000000000008152508383610c1b9092919063ffffffff16565b610a9b6040518060400160405280600881526020017f636f7079506174680000000000000000000000000000000000000000000000008152506040518060400160405280600b81526020017f737572666163654172656100000000000000000000000000000000000000000081525083610c1b9092919063ffffffff16565b610aca600660009054906101000a900473ffffffffffffffffffffffffffffffffffffffff1682600854610c4e565b505050565b610ad761154c565b610aeb60075430634d14290a60e01b610bea565b9050610b376040518060400160405280600481526020017f6e616d65000000000000000000000000000000000000000000000000000000008152508383610c1b9092919063ffffffff16565b610bb66040518060400160405280600881526020017f636f7079506174680000000000000000000000000000000000000000000000008152506040518060400160405280600c81526020017f657870656374656452656e74000000000000000000000000000000000000000081525083610c1b9092919063ffffffff16565b610be5600660009054906101000a900473ffffffffffffffffffffffffffffffffffffffff1682600854610c4e565b505050565b610bf261154c565b610bfa61154c565b610c1185858584610f06909392919063ffffffff16565b9150509392505050565b610c32828460800151610fb690919063ffffffff16565b610c49818460800151610fb690919063ffffffff16565b505050565b600030600454604051602001808373ffffffffffffffffffffffffffffffffffffffff1673ffffffffffffffffffffffffffffffffffffffff1660601b815260140182815260200192505050604051602081830303815290604052805190602001209050600454836060018181525050836005600083815260200190815260200160002060006101000a81548173ffffffffffffffffffffffffffffffffffffffff021916908373ffffffffffffffffffffffffffffffffffffffff160217905550807fb5e6e01e79f91267dc17b4e6314d5d4d03593d2ceee0fbb452b750bd70ea5af960405160405180910390a2600260009054906101000a900473ffffffffffffffffffffffffffffffffffffffff1673ffffffffffffffffffffffffffffffffffffffff16634000aea08584610d8687610fdb565b6040518463ffffffff1660e01b8152600401808473ffffffffffffffffffffffffffffffffffffffff1673ffffffffffffffffffffffffffffffffffffffff16815260200183815260200180602001828103825283818151815260200191508051906020019080838360005b83811015610e0d578082015181840152602081019050610df2565b50505050905090810190601f168015610e3a5780820380516001836020036101000a031916815260200191505b50945050505050602060405180830381600087803b158015610e5b57600080fd5b505af1158015610e6f573d6000803e3d6000fd5b505050506040513d6020811015610e8557600080fd5b8101908080519060200190929190505050610eeb576040517f08c379a00000000000000000000000000000000000000000000000000000000081526004018080602001828103825260238152602001806115d46023913960400191505060405180910390fd5b60016004600082825401925050819055508090509392505050565b610f0e61154c565b610f1e85608001516101006111a7565b508385600001818152505082856020019073ffffffffffffffffffffffffffffffffffffffff16908173ffffffffffffffffffffffffffffffffffffffff16815250508185604001907bffffffffffffffffffffffffffffffffffffffffffffffffffffffff191690817bffffffffffffffffffffffffffffffffffffffffffffffffffffffff191681525050849050949350505050565b610fc382600383516111fb565b610fd6818361134090919063ffffffff16565b505050565b6060634042994660e01b60008084600001518560200151866040015187606001516001896080015160000151604051602401808973ffffffffffffffffffffffffffffffffffffffff1673ffffffffffffffffffffffffffffffffffffffff1681526020018881526020018781526020018673ffffffffffffffffffffffffffffffffffffffff1673ffffffffffffffffffffffffffffffffffffffff168152602001857bffffffffffffffffffffffffffffffffffffffffffffffffffffffff19167bffffffffffffffffffffffffffffffffffffffffffffffffffffffff1916815260200184815260200183815260200180602001828103825283818151815260200191508051906020019080838360005b8381101561110a5780820151818401526020810190506110ef565b50505050905090810190601f1680156111375780820380516001836020036101000a031916815260200191505b509950505050505050505050604051602081830303815290604052907bffffffffffffffffffffffffffffffffffffffffffffffffffffffff19166020820180517bffffffffffffffffffffffffffffffffffffffffffffffffffffffff83818316178352505050509050919050565b6111af6115b9565b6000602083816111bb57fe5b06146111d457602082816111cb57fe5b06602003820191505b81836020018181525050604051808452600081528281016020016040525082905092915050565b60178111611228576112228160058460ff16901b60ff16178461136290919063ffffffff16565b5061133b565b60ff811161126a5761124d601860058460ff16901b178461136290919063ffffffff16565b50611264816001856113829092919063ffffffff16565b5061133a565b61ffff81116112ad57611290601960058460ff16901b178461136290919063ffffffff16565b506112a7816002856113829092919063ffffffff16565b50611339565b63ffffffff81116112f2576112d5601a60058460ff16901b178461136290919063ffffffff16565b506112ec816004856113829092919063ffffffff16565b50611338565b67ffffffffffffffff81116113375761131e601b60058460ff16901b178461136290919063ffffffff16565b50611335816008856113829092919063ffffffff16565b505b5b5b5b5b505050565b6113486115b9565b61135a838460000151518485516113a4565b905092915050565b61136a6115b9565b61137a838460000151518461145d565b905092915050565b61138a6115b9565b61139b8485600001515185856114ab565b90509392505050565b6113ac6115b9565b82518211156113ba57600080fd5b846020015182850111156113e5576113e48560026113de886020015188870161150c565b02611528565b5b6000808651805187602083010193508088870111156114045787860182525b60208701925050505b60208410611430578051825260208201915060208101905060208403935061140d565b60006001856020036101000a03905080198251168184511681811785525050879350505050949350505050565b6114656115b9565b8360200151831061148257611481846002866020015102611528565b5b835180516020858301018481538186141561149e576001820183525b5050508390509392505050565b6114b36115b9565b846020015184830111156114d1576114d085600286850102611528565b5b60006001836101000a03905085518386820101858319825116178152815185880111156114fe5784870182525b505085915050949350505050565b60008183111561151e57829050611522565b8190505b92915050565b60608260000151905061153b83836111a7565b506115468382611340565b50505050565b6040518060a0016040528060008019168152602001600073ffffffffffffffffffffffffffffffffffffffff16815260200160007bffffffffffffffffffffffffffffffffffffffffffffffffffffffff19168152602001600081526020016115b36115b9565b81525090565b60405180604001604052806060815260200160008152509056fe756e61626c6520746f207472616e73666572416e6443616c6c20746f206f7261636c65536f75726365206d75737420626520746865206f7261636c65206f66207468652072657175657374a2646970667358221220af2434978f02865d471c2da49eefaad45b91c4a64f3870e541f24adac91fb0e964736f6c63430006060033",
  "immutableReferences": {},
  "source": "pragma solidity >=0.6.0 <0.7.0;\n\nimport \"@chainlink/contracts/src/v0.6/ChainlinkClient.sol\";\n\ncontract RealEstateAPIConsumer is ChainlinkClient {\n\n    address private oracle;\n    bytes32 private jobId;\n    uint256 private fee;\n    uint256 public price;\n    uint public surfaceArea;\n    uint public rent;\n    bytes32 public latestRequestId;\n    bytes32 public tokenHash;\n\n    mapping(bytes32 => bytes32) internal receipts;\n    mapping(bytes32 => uint256) private currentRealEstatePrice;\n    mapping(bytes32 => uint256) private currentRealEstateRent;\n    mapping(bytes32 => uint256) private currentRealEstateArea;\n\n    constructor() public {\n        setPublicChainlinkToken();\n        oracle = 0xAA1DC356dc4B18f30C347798FD5379F3D77ABC5b;\n        jobId = \"c76fb336346f4a5591c90ca8242091d5\";\n        fee = 0.1 * 10 ** 18; // 0.1 LINK\n    }\n\n    function realEstateData(string memory _name) public {\n        realestateArea(_name);\n        //realestatePrice(_name);\n        realestateRent(_name);\n    }\n\n    function returnClosePrice(string memory _name) public {\n        Chainlink.Request memory request = buildChainlinkRequest(jobId, address(this), this.myCallback.selector);\n        request.add(\"name\", _name);\n        request.add(\"copyPath\", \"closePrice\");\n        receipts[sendChainlinkRequestTo(oracle, request, fee)] = stringToBytes32(_name);\n    }\n\n    function myCallback(bytes32 _requestId, uint256 _price) public recordChainlinkFulfillment(_requestId){\n        tokenHash = receipts[_requestId];\n        delete receipts[_requestId];\n        currentRealEstatePrice[tokenHash] = _price;\n        latestRequestId = _requestId;\n        price = _price;\n    }\n\n    function getCurrentPriceByAddress(string memory _name) public view returns (uint256) {\n        return currentRealEstatePrice[stringToBytes32(_name)];\n    }\n\n    function realestateArea(string memory _name) private {\n        Chainlink.Request memory request = buildChainlinkRequest(jobId, address(this), this.fulfill.selector);\n        request.add(\"name\", _name);\n        request.add(\"copyPath\", \"surfaceArea\");\n        sendChainlinkRequestTo(oracle, request, fee);\n    }\n\n    function fulfill(bytes32 _requestId, uint256 _surfaceArea) public recordChainlinkFulfillment(_requestId){\n        surfaceArea = _surfaceArea;\n    }\n\n    function realestateRent(string memory _name) private {\n        Chainlink.Request memory request = buildChainlinkRequest(jobId, address(this), this.fulfillRent.selector);\n        request.add(\"name\", _name);\n        request.add(\"copyPath\", \"expectedRent\");\n        sendChainlinkRequestTo(oracle, request, fee);\n    }\n\n    function fulfillRent(bytes32 _requestId, uint256 _rent) public recordChainlinkFulfillment(_requestId){\n        rent = _rent;\n    }\n\n    function stringToBytes32(string memory source) internal pure returns (bytes32 result) {\n        bytes memory tempEmptyStringTest = bytes(source);\n        if (tempEmptyStringTest.length == 0) {\n            return 0x0;\n        }\n        assembly {\n            result := mload(add(source, 32))\n        }\n    }\n\n    function bytes32ToStr(bytes32 _bytes32) private pure returns (string memory) {\n        bytes memory bytesArray = new bytes(32);\n        for (uint256 i; i < 32; i++) {\n            bytesArray[i] = _bytes32[i];\n        }\n        return string(bytesArray);\n    }\n}\n",
  "sourcePath": "/home/raneet/Desktop/chainlink-hackathon/contracts/RealEstateAPIConsumer.sol",
  "compiler": {
    "name": "solc",
    "version": "0.6.6+commit.6c089d02.Emscripten.clang"
  },
  "schemaVersion": "3.2.0",
  "updatedAt": "2020-09-25T15:15:09.468Z",
  "networkType": "ethereum",
  "devdoc": {
    "methods": {}
  },
  "userdoc": {
    "methods": {}
  }
}