{
  "contractName": "RealEstateAPIConsumer",
  "abi": [
    {
      "inputs": [],
      "stateMutability": "nonpayable",
      "type": "constructor"
    },
    {
      "anonymous": false,
      "inputs": [
        {
          "indexed": true,
          "internalType": "bytes32",
          "name": "id",
          "type": "bytes32"
        }
      ],
      "name": "ChainlinkCancelled",
      "type": "event"
    },
    {
      "anonymous": false,
      "inputs": [
        {
          "indexed": true,
          "internalType": "bytes32",
          "name": "id",
          "type": "bytes32"
        }
      ],
      "name": "ChainlinkFulfilled",
      "type": "event"
    },
    {
      "anonymous": false,
      "inputs": [
        {
          "indexed": true,
          "internalType": "bytes32",
          "name": "id",
          "type": "bytes32"
        }
      ],
      "name": "ChainlinkRequested",
      "type": "event"
    },
    {
      "inputs": [],
      "name": "price",
      "outputs": [
        {
          "internalType": "uint256",
          "name": "",
          "type": "uint256"
        }
      ],
      "stateMutability": "view",
      "type": "function",
      "constant": true
    },
    {
      "inputs": [],
      "name": "rent",
      "outputs": [
        {
          "internalType": "uint256",
          "name": "",
          "type": "uint256"
        }
      ],
      "stateMutability": "view",
      "type": "function",
      "constant": true
    },
    {
      "inputs": [],
      "name": "surfaceArea",
      "outputs": [
        {
          "internalType": "uint256",
          "name": "",
          "type": "uint256"
        }
      ],
      "stateMutability": "view",
      "type": "function",
      "constant": true
    },
    {
      "inputs": [
        {
          "internalType": "string",
          "name": "_name",
          "type": "string"
        }
      ],
      "name": "realEstateData",
      "outputs": [],
      "stateMutability": "nonpayable",
      "type": "function"
    },
    {
      "inputs": [
        {
          "internalType": "string",
          "name": "_name",
          "type": "string"
        }
      ],
      "name": "realestateArea",
      "outputs": [],
      "stateMutability": "nonpayable",
      "type": "function"
    },
    {
      "inputs": [
        {
          "internalType": "bytes32",
          "name": "_requestId",
          "type": "bytes32"
        },
        {
          "internalType": "uint256",
          "name": "_surfaceArea",
          "type": "uint256"
        }
      ],
      "name": "fulfill",
      "outputs": [],
      "stateMutability": "nonpayable",
      "type": "function"
    },
    {
      "inputs": [
        {
          "internalType": "bytes32",
          "name": "_requestId",
          "type": "bytes32"
        },
        {
          "internalType": "uint256",
          "name": "_price",
          "type": "uint256"
        }
      ],
      "name": "fulfillPrice",
      "outputs": [],
      "stateMutability": "nonpayable",
      "type": "function"
    },
    {
      "inputs": [
        {
          "internalType": "bytes32",
          "name": "_requestId",
          "type": "bytes32"
        },
        {
          "internalType": "uint256",
          "name": "_rent",
          "type": "uint256"
        }
      ],
      "name": "fulfillRent",
      "outputs": [],
      "stateMutability": "nonpayable",
      "type": "function"
    }
  ],
  "bytecode": "0x6080604052600160045534801561001557600080fd5b506100246100b460201b60201c565b73aa1dc356dc4b18f30c347798fd5379f3d77abc5b600860006101000a81548173ffffffffffffffffffffffffffffffffffffffff021916908373ffffffffffffffffffffffffffffffffffffffff1602179055507f633736666233333633343666346135353931633930636138323432303931643560098190555067016345785d8a0000600a8190555061019d565b61015773c89bd4e1632d3a43cb03aaad5262cbe4038bc57173ffffffffffffffffffffffffffffffffffffffff166338cc48316040518163ffffffff1660e01b815260040160206040518083038186803b15801561011157600080fd5b505afa158015610125573d6000803e3d6000fd5b505050506040513d602081101561013b57600080fd5b810190808051906020019092919050505061015960201b60201c565b565b80600260006101000a81548173ffffffffffffffffffffffffffffffffffffffff021916908373ffffffffffffffffffffffffffffffffffffffff16021790555050565b611465806101ac6000396000f3fe608060405234801561001057600080fd5b50600436106100885760003560e01c80638d2a648d1161005b5780638d2a648d14610139578063903b8dca14610171578063a035b1fe1461022c578063a4c6eeac1461024a57610088565b80634357855e1461008d5780634d14290a146100c557806382996d9f146100fd57806389e7995f1461011b575b600080fd5b6100c3600480360360408110156100a357600080fd5b810190808035906020019092919080359060200190929190505050610305565b005b6100fb600480360360408110156100db57600080fd5b81019080803590602001909291908035906020019092919050505061042c565b005b610105610553565b6040518082815260200191505060405180910390f35b610123610559565b6040518082815260200191505060405180910390f35b61016f6004803603604081101561014f57600080fd5b81019080803590602001909291908035906020019092919050505061055f565b005b61022a6004803603602081101561018757600080fd5b81019080803590602001906401000000008111156101a457600080fd5b8201836020820111156101b657600080fd5b803590602001918460018302840111640100000000831117156101d857600080fd5b91908080601f016020809104026020016040519081016040528093929190818152602001838380828437600081840152601f19601f820116905080830192505050505050509192919290505050610686565b005b6102346107a1565b6040518082815260200191505060405180910390f35b6103036004803603602081101561026057600080fd5b810190808035906020019064010000000081111561027d57600080fd5b82018360208201111561028f57600080fd5b803590602001918460018302840111640100000000831117156102b157600080fd5b91908080601f016020809104026020016040519081016040528093929190818152602001838380828437600081840152601f19601f8201169050808301925050505050505091929192905050506107a7565b005b816005600082815260200190815260200160002060009054906101000a900473ffffffffffffffffffffffffffffffffffffffff1673ffffffffffffffffffffffffffffffffffffffff163373ffffffffffffffffffffffffffffffffffffffff16146103bd576040517f08c379a00000000000000000000000000000000000000000000000000000000081526004018080602001828103825260288152602001806114086028913960400191505060405180910390fd5b6005600082815260200190815260200160002060006101000a81549073ffffffffffffffffffffffffffffffffffffffff0219169055807f7cc135e0cebb02c3480ae5d74d377283180a2601f8f644edf7987b009316c63a60405160405180910390a281600781905550505050565b816005600082815260200190815260200160002060009054906101000a900473ffffffffffffffffffffffffffffffffffffffff1673ffffffffffffffffffffffffffffffffffffffff163373ffffffffffffffffffffffffffffffffffffffff16146104e4576040517f08c379a00000000000000000000000000000000000000000000000000000000081526004018080602001828103825260288152602001806114086028913960400191505060405180910390fd5b6005600082815260200190815260200160002060006101000a81549073ffffffffffffffffffffffffffffffffffffffff0219169055807f7cc135e0cebb02c3480ae5d74d377283180a2601f8f644edf7987b009316c63a60405160405180910390a281600b81905550505050565b600b5481565b60075481565b816005600082815260200190815260200160002060009054906101000a900473ffffffffffffffffffffffffffffffffffffffff1673ffffffffffffffffffffffffffffffffffffffff163373ffffffffffffffffffffffffffffffffffffffff1614610617576040517f08c379a00000000000000000000000000000000000000000000000000000000081526004018080602001828103825260288152602001806114086028913960400191505060405180910390fd5b6005600082815260200190815260200160002060006101000a81549073ffffffffffffffffffffffffffffffffffffffff0219169055807f7cc135e0cebb02c3480ae5d74d377283180a2601f8f644edf7987b009316c63a60405160405180910390a281600681905550505050565b61068e61135d565b6106a260095430634357855e60e01b6107c5565b90506106ee6040518060400160405280600481526020017f6e616d650000000000000000000000000000000000000000000000000000000081525083836107f69092919063ffffffff16565b61076d6040518060400160405280600881526020017f636f7079506174680000000000000000000000000000000000000000000000008152506040518060400160405280600b81526020017f7375726661636541726561000000000000000000000000000000000000000000815250836107f69092919063ffffffff16565b61079c600860009054906101000a900473ffffffffffffffffffffffffffffffffffffffff1682600a54610829565b505050565b60065481565b6107b081610686565b6107b981610ae1565b6107c281610bfc565b50565b6107cd61135d565b6107d561135d565b6107ec85858584610d17909392919063ffffffff16565b9150509392505050565b61080d828460800151610dc790919063ffffffff16565b610824818460800151610dc790919063ffffffff16565b505050565b600030600454604051602001808373ffffffffffffffffffffffffffffffffffffffff1673ffffffffffffffffffffffffffffffffffffffff1660601b815260140182815260200192505050604051602081830303815290604052805190602001209050600454836060018181525050836005600083815260200190815260200160002060006101000a81548173ffffffffffffffffffffffffffffffffffffffff021916908373ffffffffffffffffffffffffffffffffffffffff160217905550807fb5e6e01e79f91267dc17b4e6314d5d4d03593d2ceee0fbb452b750bd70ea5af960405160405180910390a2600260009054906101000a900473ffffffffffffffffffffffffffffffffffffffff1673ffffffffffffffffffffffffffffffffffffffff16634000aea0858461096187610dec565b6040518463ffffffff1660e01b8152600401808473ffffffffffffffffffffffffffffffffffffffff1673ffffffffffffffffffffffffffffffffffffffff16815260200183815260200180602001828103825283818151815260200191508051906020019080838360005b838110156109e85780820151818401526020810190506109cd565b50505050905090810190601f168015610a155780820380516001836020036101000a031916815260200191505b50945050505050602060405180830381600087803b158015610a3657600080fd5b505af1158015610a4a573d6000803e3d6000fd5b505050506040513d6020811015610a6057600080fd5b8101908080519060200190929190505050610ac6576040517f08c379a00000000000000000000000000000000000000000000000000000000081526004018080602001828103825260238152602001806113e56023913960400191505060405180910390fd5b60016004600082825401925050819055508090509392505050565b610ae961135d565b610afd60095430638d2a648d60e01b6107c5565b9050610b496040518060400160405280600481526020017f6e616d650000000000000000000000000000000000000000000000000000000081525083836107f69092919063ffffffff16565b610bc86040518060400160405280600881526020017f636f7079506174680000000000000000000000000000000000000000000000008152506040518060400160405280600a81526020017f636c6f7365507269636500000000000000000000000000000000000000000000815250836107f69092919063ffffffff16565b610bf7600860009054906101000a900473ffffffffffffffffffffffffffffffffffffffff1682600a54610829565b505050565b610c0461135d565b610c1860095430634d14290a60e01b6107c5565b9050610c646040518060400160405280600481526020017f6e616d650000000000000000000000000000000000000000000000000000000081525083836107f69092919063ffffffff16565b610ce36040518060400160405280600881526020017f636f7079506174680000000000000000000000000000000000000000000000008152506040518060400160405280600c81526020017f657870656374656452656e740000000000000000000000000000000000000000815250836107f69092919063ffffffff16565b610d12600860009054906101000a900473ffffffffffffffffffffffffffffffffffffffff1682600a54610829565b505050565b610d1f61135d565b610d2f8560800151610100610fb8565b508385600001818152505082856020019073ffffffffffffffffffffffffffffffffffffffff16908173ffffffffffffffffffffffffffffffffffffffff16815250508185604001907bffffffffffffffffffffffffffffffffffffffffffffffffffffffff191690817bffffffffffffffffffffffffffffffffffffffffffffffffffffffff191681525050849050949350505050565b610dd4826003835161100c565b610de7818361115190919063ffffffff16565b505050565b6060634042994660e01b60008084600001518560200151866040015187606001516001896080015160000151604051602401808973ffffffffffffffffffffffffffffffffffffffff1673ffffffffffffffffffffffffffffffffffffffff1681526020018881526020018781526020018673ffffffffffffffffffffffffffffffffffffffff1673ffffffffffffffffffffffffffffffffffffffff168152602001857bffffffffffffffffffffffffffffffffffffffffffffffffffffffff19167bffffffffffffffffffffffffffffffffffffffffffffffffffffffff1916815260200184815260200183815260200180602001828103825283818151815260200191508051906020019080838360005b83811015610f1b578082015181840152602081019050610f00565b50505050905090810190601f168015610f485780820380516001836020036101000a031916815260200191505b509950505050505050505050604051602081830303815290604052907bffffffffffffffffffffffffffffffffffffffffffffffffffffffff19166020820180517bffffffffffffffffffffffffffffffffffffffffffffffffffffffff83818316178352505050509050919050565b610fc06113ca565b600060208381610fcc57fe5b0614610fe55760208281610fdc57fe5b06602003820191505b81836020018181525050604051808452600081528281016020016040525082905092915050565b60178111611039576110338160058460ff16901b60ff16178461117390919063ffffffff16565b5061114c565b60ff811161107b5761105e601860058460ff16901b178461117390919063ffffffff16565b50611075816001856111939092919063ffffffff16565b5061114b565b61ffff81116110be576110a1601960058460ff16901b178461117390919063ffffffff16565b506110b8816002856111939092919063ffffffff16565b5061114a565b63ffffffff8111611103576110e6601a60058460ff16901b178461117390919063ffffffff16565b506110fd816004856111939092919063ffffffff16565b50611149565b67ffffffffffffffff81116111485761112f601b60058460ff16901b178461117390919063ffffffff16565b50611146816008856111939092919063ffffffff16565b505b5b5b5b5b505050565b6111596113ca565b61116b838460000151518485516111b5565b905092915050565b61117b6113ca565b61118b838460000151518461126e565b905092915050565b61119b6113ca565b6111ac8485600001515185856112bc565b90509392505050565b6111bd6113ca565b82518211156111cb57600080fd5b846020015182850111156111f6576111f58560026111ef886020015188870161131d565b02611339565b5b6000808651805187602083010193508088870111156112155787860182525b60208701925050505b60208410611241578051825260208201915060208101905060208403935061121e565b60006001856020036101000a03905080198251168184511681811785525050879350505050949350505050565b6112766113ca565b8360200151831061129357611292846002866020015102611339565b5b83518051602085830101848153818614156112af576001820183525b5050508390509392505050565b6112c46113ca565b846020015184830111156112e2576112e185600286850102611339565b5b60006001836101000a039050855183868201018583198251161781528151858801111561130f5784870182525b505085915050949350505050565b60008183111561132f57829050611333565b8190505b92915050565b60608260000151905061134c8383610fb8565b506113578382611151565b50505050565b6040518060a0016040528060008019168152602001600073ffffffffffffffffffffffffffffffffffffffff16815260200160007bffffffffffffffffffffffffffffffffffffffffffffffffffffffff19168152602001600081526020016113c46113ca565b81525090565b60405180604001604052806060815260200160008152509056fe756e61626c6520746f207472616e73666572416e6443616c6c20746f206f7261636c65536f75726365206d75737420626520746865206f7261636c65206f66207468652072657175657374a26469706673582212205cf1fd2f76535cbb8502d3eb1a4c726f329d38be584affc071d6058b16c9b1be64736f6c63430006060033",
  "immutableReferences": {},
  "source": "pragma solidity >=0.6.0 <0.7.0;\n\nimport \"@chainlink/contracts/src/v0.6/ChainlinkClient.sol\";\n\ncontract RealEstateAPIConsumer is ChainlinkClient {\n\n  uint256 public price;\n  uint public surfaceArea;\n  address private oracle;\n  bytes32 private jobId;\n  uint256 private fee;\n  uint public rent;\n\n  constructor() public {\n    setPublicChainlinkToken();\n    oracle = 0xAA1DC356dc4B18f30C347798FD5379F3D77ABC5b;\n    jobId = \"c76fb336346f4a5591c90ca8242091d5\";\n    fee = 0.1 * 10 ** 18; // 0.1 LINK\n  }\n\n  function realEstateData(string memory _name) public {\n    realestateArea(_name);\n    realestatePrice(_name);\n    realestateRent(_name);\n  }\n\n  function realestateArea(string memory _name) public {\n    Chainlink.Request memory request = buildChainlinkRequest(jobId, address(this), this.fulfill.selector);\n    request.add(\"name\", _name);\n    request.add(\"copyPath\", \"surfaceArea\");\n    sendChainlinkRequestTo(oracle, request, fee);\n  }\n\n  function fulfill(bytes32 _requestId, uint256 _surfaceArea) public recordChainlinkFulfillment(_requestId){\n    surfaceArea = _surfaceArea;\n  }\n\n  function realestatePrice(string memory _name) private {\n    Chainlink.Request memory request = buildChainlinkRequest(jobId, address(this), this.fulfillPrice.selector);\n    request.add(\"name\", _name);\n    request.add(\"copyPath\", \"closePrice\");\n    sendChainlinkRequestTo(oracle, request, fee);\n  }\n\n  function fulfillPrice(bytes32 _requestId, uint256 _price) public recordChainlinkFulfillment(_requestId){\n    price = _price;\n  }\n\n  function realestateRent(string memory _name) private {\n    Chainlink.Request memory request = buildChainlinkRequest(jobId, address(this), this.fulfillRent.selector);\n    request.add(\"name\", _name);\n    request.add(\"copyPath\", \"expectedRent\");\n    sendChainlinkRequestTo(oracle, request, fee);\n  }\n\n  function fulfillRent(bytes32 _requestId, uint256 _rent) public recordChainlinkFulfillment(_requestId){\n    rent = _rent;\n  }\n}\n",
  "sourcePath": "/Users/newsgate/Work/chainlink-hackathon/contracts/RealEstateAPIConsumer.sol",
  "compiler": {
    "name": "solc",
    "version": "0.6.6+commit.6c089d02.Emscripten.clang"
  },
  "schemaVersion": "3.2.3",
  "updatedAt": "2020-09-22T20:37:00.959Z",
  "networkType": "ethereum",
  "devdoc": {
    "methods": {}
  },
  "userdoc": {
    "methods": {}
  }
}