{
  "contractName": "RealEstateAPIConsumer",
  "abi": [
    {
      "inputs": [],
      "stateMutability": "nonpayable",
      "type": "constructor"
    },
    {
      "anonymous": false,
      "inputs": [
        {
          "indexed": true,
          "internalType": "bytes32",
          "name": "id",
          "type": "bytes32"
        }
      ],
      "name": "ChainlinkCancelled",
      "type": "event"
    },
    {
      "anonymous": false,
      "inputs": [
        {
          "indexed": true,
          "internalType": "bytes32",
          "name": "id",
          "type": "bytes32"
        }
      ],
      "name": "ChainlinkFulfilled",
      "type": "event"
    },
    {
      "anonymous": false,
      "inputs": [
        {
          "indexed": true,
          "internalType": "bytes32",
          "name": "id",
          "type": "bytes32"
        }
      ],
      "name": "ChainlinkRequested",
      "type": "event"
    },
    {
      "inputs": [],
      "name": "price",
      "outputs": [
        {
          "internalType": "uint256",
          "name": "",
          "type": "uint256"
        }
      ],
      "stateMutability": "view",
      "type": "function"
    },
    {
      "inputs": [],
      "name": "surfaceArea",
      "outputs": [
        {
          "internalType": "uint256",
          "name": "",
          "type": "uint256"
        }
      ],
      "stateMutability": "view",
      "type": "function"
    },
    {
      "inputs": [],
      "name": "realestaeArea",
      "outputs": [],
      "stateMutability": "nonpayable",
      "type": "function"
    },
    {
      "inputs": [
        {
          "internalType": "bytes32",
          "name": "_requestId",
          "type": "bytes32"
        },
        {
          "internalType": "uint256",
          "name": "_surfaceArea",
          "type": "uint256"
        }
      ],
      "name": "fulfill",
      "outputs": [],
      "stateMutability": "nonpayable",
      "type": "function"
    }
  ],
  "bytecode": "0x6080604052600160045534801561001557600080fd5b506100246100b460201b60201c565b73aa1dc356dc4b18f30c347798fd5379f3d77abc5b600860006101000a81548173ffffffffffffffffffffffffffffffffffffffff021916908373ffffffffffffffffffffffffffffffffffffffff1602179055507f633736666233333633343666346135353931633930636138323432303931643560098190555067016345785d8a0000600a8190555061019d565b61015773c89bd4e1632d3a43cb03aaad5262cbe4038bc57173ffffffffffffffffffffffffffffffffffffffff166338cc48316040518163ffffffff1660e01b815260040160206040518083038186803b15801561011157600080fd5b505afa158015610125573d6000803e3d6000fd5b505050506040513d602081101561013b57600080fd5b810190808051906020019092919050505061015960201b60201c565b565b80600260006101000a81548173ffffffffffffffffffffffffffffffffffffffff021916908373ffffffffffffffffffffffffffffffffffffffff16021790555050565b610d3c806101ac6000396000f3fe608060405234801561001057600080fd5b506004361061004c5760003560e01c80634357855e1461005157806389e7995f146100895780639bb3bde9146100a7578063a035b1fe146100b1575b600080fd5b6100876004803603604081101561006757600080fd5b8101908080359060200190929190803590602001909291905050506100cf565b005b6100916101f6565b6040518082815260200191505060405180910390f35b6100af6101fc565b005b6100b96102cc565b6040518082815260200191505060405180910390f35b816005600082815260200190815260200160002060009054906101000a900473ffffffffffffffffffffffffffffffffffffffff1673ffffffffffffffffffffffffffffffffffffffff163373ffffffffffffffffffffffffffffffffffffffff1614610187576040517f08c379a0000000000000000000000000000000000000000000000000000000008152600401808060200182810382526028815260200180610cdf6028913960400191505060405180910390fd5b6005600082815260200190815260200160002060006101000a81549073ffffffffffffffffffffffffffffffffffffffff0219169055807f7cc135e0cebb02c3480ae5d74d377283180a2601f8f644edf7987b009316c63a60405160405180910390a281600781905550505050565b60075481565b610204610c34565b61021860095430634357855e60e01b6102d2565b90506102996040518060400160405280600481526020017f6e616d65000000000000000000000000000000000000000000000000000000008152506040518060400160405280600381526020017f54616a0000000000000000000000000000000000000000000000000000000000815250836103039092919063ffffffff16565b6102c8600860009054906101000a900473ffffffffffffffffffffffffffffffffffffffff1682600a54610336565b5050565b60065481565b6102da610c34565b6102e2610c34565b6102f9858585846105ee909392919063ffffffff16565b9150509392505050565b61031a82846080015161069e90919063ffffffff16565b61033181846080015161069e90919063ffffffff16565b505050565b600030600454604051602001808373ffffffffffffffffffffffffffffffffffffffff1673ffffffffffffffffffffffffffffffffffffffff1660601b815260140182815260200192505050604051602081830303815290604052805190602001209050600454836060018181525050836005600083815260200190815260200160002060006101000a81548173ffffffffffffffffffffffffffffffffffffffff021916908373ffffffffffffffffffffffffffffffffffffffff160217905550807fb5e6e01e79f91267dc17b4e6314d5d4d03593d2ceee0fbb452b750bd70ea5af960405160405180910390a2600260009054906101000a900473ffffffffffffffffffffffffffffffffffffffff1673ffffffffffffffffffffffffffffffffffffffff16634000aea0858461046e876106c3565b6040518463ffffffff1660e01b8152600401808473ffffffffffffffffffffffffffffffffffffffff1673ffffffffffffffffffffffffffffffffffffffff16815260200183815260200180602001828103825283818151815260200191508051906020019080838360005b838110156104f55780820151818401526020810190506104da565b50505050905090810190601f1680156105225780820380516001836020036101000a031916815260200191505b50945050505050602060405180830381600087803b15801561054357600080fd5b505af1158015610557573d6000803e3d6000fd5b505050506040513d602081101561056d57600080fd5b81019080805190602001909291905050506105d3576040517f08c379a0000000000000000000000000000000000000000000000000000000008152600401808060200182810382526023815260200180610cbc6023913960400191505060405180910390fd5b60016004600082825401925050819055508090509392505050565b6105f6610c34565b610606856080015161010061088f565b508385600001818152505082856020019073ffffffffffffffffffffffffffffffffffffffff16908173ffffffffffffffffffffffffffffffffffffffff16815250508185604001907bffffffffffffffffffffffffffffffffffffffffffffffffffffffff191690817bffffffffffffffffffffffffffffffffffffffffffffffffffffffff191681525050849050949350505050565b6106ab82600383516108e3565b6106be8183610a2890919063ffffffff16565b505050565b6060634042994660e01b60008084600001518560200151866040015187606001516001896080015160000151604051602401808973ffffffffffffffffffffffffffffffffffffffff1673ffffffffffffffffffffffffffffffffffffffff1681526020018881526020018781526020018673ffffffffffffffffffffffffffffffffffffffff1673ffffffffffffffffffffffffffffffffffffffff168152602001857bffffffffffffffffffffffffffffffffffffffffffffffffffffffff19167bffffffffffffffffffffffffffffffffffffffffffffffffffffffff1916815260200184815260200183815260200180602001828103825283818151815260200191508051906020019080838360005b838110156107f25780820151818401526020810190506107d7565b50505050905090810190601f16801561081f5780820380516001836020036101000a031916815260200191505b509950505050505050505050604051602081830303815290604052907bffffffffffffffffffffffffffffffffffffffffffffffffffffffff19166020820180517bffffffffffffffffffffffffffffffffffffffffffffffffffffffff83818316178352505050509050919050565b610897610ca1565b6000602083816108a357fe5b06146108bc57602082816108b357fe5b06602003820191505b81836020018181525050604051808452600081528281016020016040525082905092915050565b601781116109105761090a8160058460ff16901b60ff161784610a4a90919063ffffffff16565b50610a23565b60ff811161095257610935601860058460ff16901b1784610a4a90919063ffffffff16565b5061094c81600185610a6a9092919063ffffffff16565b50610a22565b61ffff811161099557610978601960058460ff16901b1784610a4a90919063ffffffff16565b5061098f81600285610a6a9092919063ffffffff16565b50610a21565b63ffffffff81116109da576109bd601a60058460ff16901b1784610a4a90919063ffffffff16565b506109d481600485610a6a9092919063ffffffff16565b50610a20565b67ffffffffffffffff8111610a1f57610a06601b60058460ff16901b1784610a4a90919063ffffffff16565b50610a1d81600885610a6a9092919063ffffffff16565b505b5b5b5b5b505050565b610a30610ca1565b610a4283846000015151848551610a8c565b905092915050565b610a52610ca1565b610a628384600001515184610b45565b905092915050565b610a72610ca1565b610a83848560000151518585610b93565b90509392505050565b610a94610ca1565b8251821115610aa257600080fd5b84602001518285011115610acd57610acc856002610ac68860200151888701610bf4565b02610c10565b5b600080865180518760208301019350808887011115610aec5787860182525b60208701925050505b60208410610b185780518252602082019150602081019050602084039350610af5565b60006001856020036101000a03905080198251168184511681811785525050879350505050949350505050565b610b4d610ca1565b83602001518310610b6a57610b69846002866020015102610c10565b5b8351805160208583010184815381861415610b86576001820183525b5050508390509392505050565b610b9b610ca1565b84602001518483011115610bb957610bb885600286850102610c10565b5b60006001836101000a0390508551838682010185831982511617815281518588011115610be65784870182525b505085915050949350505050565b600081831115610c0657829050610c0a565b8190505b92915050565b606082600001519050610c23838361088f565b50610c2e8382610a28565b50505050565b6040518060a0016040528060008019168152602001600073ffffffffffffffffffffffffffffffffffffffff16815260200160007bffffffffffffffffffffffffffffffffffffffffffffffffffffffff1916815260200160008152602001610c9b610ca1565b81525090565b60405180604001604052806060815260200160008152509056fe756e61626c6520746f207472616e73666572416e6443616c6c20746f206f7261636c65536f75726365206d75737420626520746865206f7261636c65206f66207468652072657175657374a2646970667358221220873d6d92efaaf5c721b39152eeee07010b1bdf8fd6503ab44d6ce7e4515589c864736f6c63430006060033",
  "immutableReferences": {},
  "source": "pragma solidity >=0.6.0 <0.7.0;\n\nimport \"@chainlink/contracts/src/v0.6/ChainlinkClient.sol\";\n//import \"github.com/smartcontractkit/chainlink/evm-contracts/src/v0.6/ChainlinkClient.sol\";\n\n\ncontract RealEstateAPIConsumer is ChainlinkClient {\n\n    uint256 public price;\n    uint256 public surfaceArea;\n    address private oracle;\n    bytes32 private jobId;\n    uint256 private fee;\n\n    constructor() public {\n      setPublicChainlinkToken();\n      oracle = 0xAA1DC356dc4B18f30C347798FD5379F3D77ABC5b;\n      jobId = \"c76fb336346f4a5591c90ca8242091d5\";\n      fee = 0.1 * 10 ** 18; // 0.1 LINK\n    }\n\n    function realestaeArea() public {\n      Chainlink.Request memory request = buildChainlinkRequest(jobId, address(this), this.fulfill.selector);\n      request.add(\"name\", \"Taj\");\n      sendChainlinkRequestTo(oracle, request, fee);\n    }\n\n    function fulfill(bytes32 _requestId, uint256 _surfaceArea) public recordChainlinkFulfillment(_requestId){\n      surfaceArea = _surfaceArea;\n    }\n}\n",
  "sourcePath": "/Users/newsgate/Work/chainlink-hackathon/contracts/RealEstateAPIConsumer.sol",
  "compiler": {
    "name": "solc",
    "version": "0.6.6+commit.6c089d02.Emscripten.clang"
  },
  "schemaVersion": "3.2.3",
  "updatedAt": "2020-09-19T20:00:58.035Z",
  "devdoc": {
    "methods": {}
  },
  "userdoc": {
    "methods": {}
  }
}