{
  "contractName": "RealestateToken",
  "abi": [
    {
      "inputs": [
        {
          "internalType": "address",
          "name": "_owner",
          "type": "address"
        },
        {
          "internalType": "uint256",
          "name": "_supply",
          "type": "uint256"
        }
      ],
      "stateMutability": "nonpayable",
      "type": "constructor"
    },
    {
      "anonymous": false,
      "inputs": [
        {
          "indexed": true,
          "internalType": "address",
          "name": "owner",
          "type": "address"
        },
        {
          "indexed": true,
          "internalType": "address",
          "name": "shareholder",
          "type": "address"
        }
      ],
      "name": "AddShareholder",
      "type": "event"
    },
    {
      "anonymous": false,
      "inputs": [
        {
          "indexed": true,
          "internalType": "address",
          "name": "owner",
          "type": "address"
        },
        {
          "indexed": true,
          "internalType": "address",
          "name": "spender",
          "type": "address"
        },
        {
          "indexed": false,
          "internalType": "uint256",
          "name": "value",
          "type": "uint256"
        }
      ],
      "name": "Approval",
      "type": "event"
    },
    {
      "anonymous": false,
      "inputs": [
        {
          "indexed": true,
          "internalType": "address",
          "name": "previousOwner",
          "type": "address"
        },
        {
          "indexed": true,
          "internalType": "address",
          "name": "newOwner",
          "type": "address"
        }
      ],
      "name": "OwnershipTransferred",
      "type": "event"
    },
    {
      "anonymous": false,
      "inputs": [
        {
          "indexed": true,
          "internalType": "address",
          "name": "owner",
          "type": "address"
        },
        {
          "indexed": true,
          "internalType": "address",
          "name": "shareholder",
          "type": "address"
        }
      ],
      "name": "RemoveShareholder",
      "type": "event"
    },
    {
      "anonymous": false,
      "inputs": [
        {
          "indexed": true,
          "internalType": "address",
          "name": "from",
          "type": "address"
        },
        {
          "indexed": true,
          "internalType": "address",
          "name": "to",
          "type": "address"
        },
        {
          "indexed": false,
          "internalType": "uint256",
          "name": "value",
          "type": "uint256"
        }
      ],
      "name": "Transfer",
      "type": "event"
    },
    {
      "anonymous": false,
      "inputs": [
        {
          "indexed": true,
          "internalType": "address",
          "name": "sender",
          "type": "address"
        },
        {
          "indexed": true,
          "internalType": "address",
          "name": "receipent",
          "type": "address"
        },
        {
          "indexed": false,
          "internalType": "uint256",
          "name": "amount",
          "type": "uint256"
        }
      ],
      "name": "TransferRevenue",
      "type": "event"
    },
    {
      "inputs": [
        {
          "internalType": "address",
          "name": "owner",
          "type": "address"
        },
        {
          "internalType": "address",
          "name": "spender",
          "type": "address"
        }
      ],
      "name": "allowance",
      "outputs": [
        {
          "internalType": "uint256",
          "name": "",
          "type": "uint256"
        }
      ],
      "stateMutability": "view",
      "type": "function"
    },
    {
      "inputs": [
        {
          "internalType": "address",
          "name": "spender",
          "type": "address"
        },
        {
          "internalType": "uint256",
          "name": "amount",
          "type": "uint256"
        }
      ],
      "name": "approve",
      "outputs": [
        {
          "internalType": "bool",
          "name": "",
          "type": "bool"
        }
      ],
      "stateMutability": "nonpayable",
      "type": "function"
    },
    {
      "inputs": [
        {
          "internalType": "address",
          "name": "account",
          "type": "address"
        }
      ],
      "name": "balanceOf",
      "outputs": [
        {
          "internalType": "uint256",
          "name": "",
          "type": "uint256"
        }
      ],
      "stateMutability": "view",
      "type": "function"
    },
    {
      "inputs": [],
      "name": "collected",
      "outputs": [
        {
          "internalType": "uint256",
          "name": "",
          "type": "uint256"
        }
      ],
      "stateMutability": "view",
      "type": "function"
    },
    {
      "inputs": [],
      "name": "decimals",
      "outputs": [
        {
          "internalType": "uint8",
          "name": "",
          "type": "uint8"
        }
      ],
      "stateMutability": "view",
      "type": "function"
    },
    {
      "inputs": [
        {
          "internalType": "address",
          "name": "spender",
          "type": "address"
        },
        {
          "internalType": "uint256",
          "name": "subtractedValue",
          "type": "uint256"
        }
      ],
      "name": "decreaseAllowance",
      "outputs": [
        {
          "internalType": "bool",
          "name": "",
          "type": "bool"
        }
      ],
      "stateMutability": "nonpayable",
      "type": "function"
    },
    {
      "inputs": [
        {
          "internalType": "address",
          "name": "spender",
          "type": "address"
        },
        {
          "internalType": "uint256",
          "name": "addedValue",
          "type": "uint256"
        }
      ],
      "name": "increaseAllowance",
      "outputs": [
        {
          "internalType": "bool",
          "name": "",
          "type": "bool"
        }
      ],
      "stateMutability": "nonpayable",
      "type": "function"
    },
    {
      "inputs": [],
      "name": "name",
      "outputs": [
        {
          "internalType": "string",
          "name": "",
          "type": "string"
        }
      ],
      "stateMutability": "view",
      "type": "function"
    },
    {
      "inputs": [],
      "name": "owner",
      "outputs": [
        {
          "internalType": "address",
          "name": "",
          "type": "address"
        }
      ],
      "stateMutability": "view",
      "type": "function"
    },
    {
      "inputs": [],
      "name": "renounceOwnership",
      "outputs": [],
      "stateMutability": "nonpayable",
      "type": "function"
    },
    {
      "inputs": [],
      "name": "symbol",
      "outputs": [
        {
          "internalType": "string",
          "name": "",
          "type": "string"
        }
      ],
      "stateMutability": "view",
      "type": "function"
    },
    {
      "inputs": [],
      "name": "totalShares",
      "outputs": [
        {
          "internalType": "uint256",
          "name": "",
          "type": "uint256"
        }
      ],
      "stateMutability": "view",
      "type": "function"
    },
    {
      "inputs": [],
      "name": "totalSupply",
      "outputs": [
        {
          "internalType": "uint256",
          "name": "",
          "type": "uint256"
        }
      ],
      "stateMutability": "view",
      "type": "function"
    },
    {
      "inputs": [
        {
          "internalType": "address",
          "name": "recipient",
          "type": "address"
        },
        {
          "internalType": "uint256",
          "name": "amount",
          "type": "uint256"
        }
      ],
      "name": "transfer",
      "outputs": [
        {
          "internalType": "bool",
          "name": "",
          "type": "bool"
        }
      ],
      "stateMutability": "nonpayable",
      "type": "function"
    },
    {
      "inputs": [
        {
          "internalType": "address",
          "name": "sender",
          "type": "address"
        },
        {
          "internalType": "address",
          "name": "recipient",
          "type": "address"
        },
        {
          "internalType": "uint256",
          "name": "amount",
          "type": "uint256"
        }
      ],
      "name": "transferFrom",
      "outputs": [
        {
          "internalType": "bool",
          "name": "",
          "type": "bool"
        }
      ],
      "stateMutability": "nonpayable",
      "type": "function"
    },
    {
      "inputs": [
        {
          "internalType": "address",
          "name": "newOwner",
          "type": "address"
        }
      ],
      "name": "transferOwnership",
      "outputs": [],
      "stateMutability": "nonpayable",
      "type": "function"
    },
    {
      "inputs": [],
      "name": "accumulate",
      "outputs": [],
      "stateMutability": "payable",
      "type": "function"
    },
    {
      "inputs": [
        {
          "internalType": "address",
          "name": "_address",
          "type": "address"
        }
      ],
      "name": "isShareHolder",
      "outputs": [
        {
          "internalType": "bool",
          "name": "",
          "type": "bool"
        }
      ],
      "stateMutability": "view",
      "type": "function"
    },
    {
      "inputs": [
        {
          "internalType": "address",
          "name": "_address",
          "type": "address"
        }
      ],
      "name": "addShareHolder",
      "outputs": [],
      "stateMutability": "nonpayable",
      "type": "function"
    },
    {
      "inputs": [
        {
          "internalType": "address",
          "name": "_address",
          "type": "address"
        }
      ],
      "name": "removeShareHolder",
      "outputs": [],
      "stateMutability": "nonpayable",
      "type": "function"
    },
    {
      "inputs": [
        {
          "internalType": "address",
          "name": "_address",
          "type": "address"
        },
        {
          "internalType": "string",
          "name": "_name",
          "type": "string"
        }
      ],
      "name": "distributeRevenue",
      "outputs": [],
      "stateMutability": "nonpayable",
      "type": "function"
    }
  ],
  "bytecode": "0x60806040526040516200001290620004b9565b604051809103906000f0801580156200002f573d6000803e3d6000fd5b50600a60006101000a81548173ffffffffffffffffffffffffffffffffffffffff021916908373ffffffffffffffffffffffffffffffffffffffff1602179055503480156200007d57600080fd5b506040516200270a3803806200270a83398181016040526040811015620000a357600080fd5b8101908080519060200190929190805190602001909291905050506040518060400160405280600f81526020017f5265616c457374617465546f6b656e00000000000000000000000000000000008152506040518060400160405280600381526020017f5245540000000000000000000000000000000000000000000000000000000000815250816003908051906020019062000142929190620004c7565b5080600490805190602001906200015b929190620004c7565b506012600560006101000a81548160ff021916908360ff160217905550505060006200018c6200024560201b60201c565b905080600560016101000a81548173ffffffffffffffffffffffffffffffffffffffff021916908373ffffffffffffffffffffffffffffffffffffffff1602179055508073ffffffffffffffffffffffffffffffffffffffff16600073ffffffffffffffffffffffffffffffffffffffff167f8be0079c531659141344cd1fd0a4f28419497f9722a3daafe3b4186f6b6457e060405160405180910390a3506200023d82826200024d60201b60201c565b505062000576565b600033905090565b600073ffffffffffffffffffffffffffffffffffffffff168273ffffffffffffffffffffffffffffffffffffffff161415620002f1576040517f08c379a000000000000000000000000000000000000000000000000000000000815260040180806020018281038252601f8152602001807f45524332303a206d696e7420746f20746865207a65726f20616464726573730081525060200191505060405180910390fd5b62000305600083836200042b60201b60201c565b62000321816002546200043060201b62001ce21790919060201c565b6002819055506200037f816000808573ffffffffffffffffffffffffffffffffffffffff1673ffffffffffffffffffffffffffffffffffffffff168152602001908152602001600020546200043060201b62001ce21790919060201c565b6000808473ffffffffffffffffffffffffffffffffffffffff1673ffffffffffffffffffffffffffffffffffffffff168152602001908152602001600020819055508173ffffffffffffffffffffffffffffffffffffffff16600073ffffffffffffffffffffffffffffffffffffffff167fddf252ad1be2c89b69c2b068fc378daa952ba7f163c4a11628f55a4df523b3ef836040518082815260200191505060405180910390a35050565b505050565b600080828401905083811015620004af576040517f08c379a000000000000000000000000000000000000000000000000000000000815260040180806020018281038252601b8152602001807f536166654d6174683a206164646974696f6e206f766572666c6f77000000000081525060200191505060405180910390fd5b8091505092915050565b610281806200248983390190565b828054600181600116156101000203166002900490600052602060002090601f016020900481019282601f106200050a57805160ff19168380011785556200053b565b828001600101855582156200053b579182015b828111156200053a5782518255916020019190600101906200051d565b5b5090506200054a91906200054e565b5090565b6200057391905b808211156200056f57600081600090555060010162000555565b5090565b90565b611f0380620005866000396000f3fe60806040526004361061012a5760003560e01c80637a33f63c116100ab578063a53aeb4e1161006f578063a53aeb4e1461067a578063a9059cbb14610684578063af769c64146106f7578063dd62ed3e14610748578063e618fc0c146107cd578063f2fde38b146108b55761012a565b80637a33f63c1461048c57806384bcefd4146104f55780638da5cb5b1461052057806395d89b4114610577578063a457c2d7146106075761012a565b806339509351116100f257806339509351146103215780633a98ef39146103945780635ab59720146103bf57806370a0823114610410578063715018a6146104755761012a565b806306fdde031461012f578063095ea7b3146101bf57806318160ddd1461023257806323b872dd1461025d578063313ce567146102f0575b600080fd5b34801561013b57600080fd5b50610144610906565b6040518080602001828103825283818151815260200191508051906020019080838360005b83811015610184578082015181840152602081019050610169565b50505050905090810190601f1680156101b15780820380516001836020036101000a031916815260200191505b509250505060405180910390f35b3480156101cb57600080fd5b50610218600480360360408110156101e257600080fd5b81019080803573ffffffffffffffffffffffffffffffffffffffff169060200190929190803590602001909291905050506109a8565b604051808215151515815260200191505060405180910390f35b34801561023e57600080fd5b506102476109c6565b6040518082815260200191505060405180910390f35b34801561026957600080fd5b506102d66004803603606081101561028057600080fd5b81019080803573ffffffffffffffffffffffffffffffffffffffff169060200190929190803573ffffffffffffffffffffffffffffffffffffffff169060200190929190803590602001909291905050506109d0565b604051808215151515815260200191505060405180910390f35b3480156102fc57600080fd5b50610305610aa9565b604051808260ff1660ff16815260200191505060405180910390f35b34801561032d57600080fd5b5061037a6004803603604081101561034457600080fd5b81019080803573ffffffffffffffffffffffffffffffffffffffff16906020019092919080359060200190929190505050610ac0565b604051808215151515815260200191505060405180910390f35b3480156103a057600080fd5b506103a9610b73565b6040518082815260200191505060405180910390f35b3480156103cb57600080fd5b5061040e600480360360208110156103e257600080fd5b81019080803573ffffffffffffffffffffffffffffffffffffffff169060200190929190505050610b79565b005b34801561041c57600080fd5b5061045f6004803603602081101561043357600080fd5b81019080803573ffffffffffffffffffffffffffffffffffffffff169060200190929190505050610d7c565b6040518082815260200191505060405180910390f35b34801561048157600080fd5b5061048a610dc4565b005b34801561049857600080fd5b506104db600480360360208110156104af57600080fd5b81019080803573ffffffffffffffffffffffffffffffffffffffff169060200190929190505050610f4f565b604051808215151515815260200191505060405180910390f35b34801561050157600080fd5b5061050a610fa5565b6040518082815260200191505060405180910390f35b34801561052c57600080fd5b50610535610fab565b604051808273ffffffffffffffffffffffffffffffffffffffff1673ffffffffffffffffffffffffffffffffffffffff16815260200191505060405180910390f35b34801561058357600080fd5b5061058c610fd5565b6040518080602001828103825283818151815260200191508051906020019080838360005b838110156105cc5780820151818401526020810190506105b1565b50505050905090810190601f1680156105f95780820380516001836020036101000a031916815260200191505b509250505060405180910390f35b34801561061357600080fd5b506106606004803603604081101561062a57600080fd5b81019080803573ffffffffffffffffffffffffffffffffffffffff16906020019092919080359060200190929190505050611077565b604051808215151515815260200191505060405180910390f35b610682611144565b005b34801561069057600080fd5b506106dd600480360360408110156106a757600080fd5b81019080803573ffffffffffffffffffffffffffffffffffffffff169060200190929190803590602001909291905050506111b5565b604051808215151515815260200191505060405180910390f35b34801561070357600080fd5b506107466004803603602081101561071a57600080fd5b81019080803573ffffffffffffffffffffffffffffffffffffffff1690602001909291905050506111d3565b005b34801561075457600080fd5b506107b76004803603604081101561076b57600080fd5b81019080803573ffffffffffffffffffffffffffffffffffffffff169060200190929190803573ffffffffffffffffffffffffffffffffffffffff16906020019092919050505061144a565b6040518082815260200191505060405180910390f35b3480156107d957600080fd5b506108b3600480360360408110156107f057600080fd5b81019080803573ffffffffffffffffffffffffffffffffffffffff1690602001909291908035906020019064010000000081111561082d57600080fd5b82018360208201111561083f57600080fd5b8035906020019184600183028401116401000000008311171561086157600080fd5b91908080601f016020809104026020016040519081016040528093929190818152602001838380828437600081840152601f19601f8201169050808301925050505050505091929192905050506114d1565b005b3480156108c157600080fd5b50610904600480360360208110156108d857600080fd5b81019080803573ffffffffffffffffffffffffffffffffffffffff169060200190929190505050611552565b005b606060038054600181600116156101000203166002900480601f01602080910402602001604051908101604052809291908181526020018280546001816001161561010002031660029004801561099e5780601f106109735761010080835404028352916020019161099e565b820191906000526020600020905b81548152906001019060200180831161098157829003601f168201915b5050505050905090565b60006109bc6109b5611762565b848461176a565b6001905092915050565b6000600254905090565b60006109dd848484611961565b610a9e846109e9611762565b610a9985604051806060016040528060288152602001611e3860289139600160008b73ffffffffffffffffffffffffffffffffffffffff1673ffffffffffffffffffffffffffffffffffffffff1681526020019081526020016000206000610a4f611762565b73ffffffffffffffffffffffffffffffffffffffff1673ffffffffffffffffffffffffffffffffffffffff16815260200190815260200160002054611c229092919063ffffffff16565b61176a565b600190509392505050565b6000600560009054906101000a900460ff16905090565b6000610b69610acd611762565b84610b648560016000610ade611762565b73ffffffffffffffffffffffffffffffffffffffff1673ffffffffffffffffffffffffffffffffffffffff16815260200190815260200160002060008973ffffffffffffffffffffffffffffffffffffffff1673ffffffffffffffffffffffffffffffffffffffff16815260200190815260200160002054611ce290919063ffffffff16565b61176a565b6001905092915050565b60095481565b610b81611762565b73ffffffffffffffffffffffffffffffffffffffff16600560019054906101000a900473ffffffffffffffffffffffffffffffffffffffff1673ffffffffffffffffffffffffffffffffffffffff1614610c43576040517f08c379a00000000000000000000000000000000000000000000000000000000081526004018080602001828103825260208152602001807f4f776e61626c653a2063616c6c6572206973206e6f7420746865206f776e657281525060200191505060405180910390fd5b80610c4d81610f4f565b610cbf576040517f08c379a00000000000000000000000000000000000000000000000000000000081526004018080602001828103825260118152602001807f4e6f742061207368617265686f6c64657200000000000000000000000000000081525060200191505060405180910390fd5b6000600660008473ffffffffffffffffffffffffffffffffffffffff1673ffffffffffffffffffffffffffffffffffffffff16815260200190815260200160002060006101000a81548160ff0219169083151502179055508173ffffffffffffffffffffffffffffffffffffffff16610d36610fab565b73ffffffffffffffffffffffffffffffffffffffff167f799b882a9ad79c466529750fd63520884a75f093d5e916998b362ee04a6a6e0160405160405180910390a35050565b60008060008373ffffffffffffffffffffffffffffffffffffffff1673ffffffffffffffffffffffffffffffffffffffff168152602001908152602001600020549050919050565b610dcc611762565b73ffffffffffffffffffffffffffffffffffffffff16600560019054906101000a900473ffffffffffffffffffffffffffffffffffffffff1673ffffffffffffffffffffffffffffffffffffffff1614610e8e576040517f08c379a00000000000000000000000000000000000000000000000000000000081526004018080602001828103825260208152602001807f4f776e61626c653a2063616c6c6572206973206e6f7420746865206f776e657281525060200191505060405180910390fd5b600073ffffffffffffffffffffffffffffffffffffffff16600560019054906101000a900473ffffffffffffffffffffffffffffffffffffffff1673ffffffffffffffffffffffffffffffffffffffff167f8be0079c531659141344cd1fd0a4f28419497f9722a3daafe3b4186f6b6457e060405160405180910390a36000600560016101000a81548173ffffffffffffffffffffffffffffffffffffffff021916908373ffffffffffffffffffffffffffffffffffffffff160217905550565b6000600660008373ffffffffffffffffffffffffffffffffffffffff1673ffffffffffffffffffffffffffffffffffffffff16815260200190815260200160002060009054906101000a900460ff169050919050565b60085481565b6000600560019054906101000a900473ffffffffffffffffffffffffffffffffffffffff16905090565b606060048054600181600116156101000203166002900480601f01602080910402602001604051908101604052809291908181526020018280546001816001161561010002031660029004801561106d5780601f106110425761010080835404028352916020019161106d565b820191906000526020600020905b81548152906001019060200180831161105057829003601f168201915b5050505050905090565b600061113a611084611762565b8461113585604051806060016040528060258152602001611ea960259139600160006110ae611762565b73ffffffffffffffffffffffffffffffffffffffff1673ffffffffffffffffffffffffffffffffffffffff16815260200190815260200160002060008a73ffffffffffffffffffffffffffffffffffffffff1673ffffffffffffffffffffffffffffffffffffffff16815260200190815260200160002054611c229092919063ffffffff16565b61176a565b6001905092915050565b61115934600854611ce290919063ffffffff16565b6008819055506008546009819055503460076000611175611762565b73ffffffffffffffffffffffffffffffffffffffff1673ffffffffffffffffffffffffffffffffffffffff16815260200190815260200160002081905550565b60006111c96111c2611762565b8484611961565b6001905092915050565b6111db611762565b73ffffffffffffffffffffffffffffffffffffffff16600560019054906101000a900473ffffffffffffffffffffffffffffffffffffffff1673ffffffffffffffffffffffffffffffffffffffff161461129d576040517f08c379a00000000000000000000000000000000000000000000000000000000081526004018080602001828103825260208152602001807f4f776e61626c653a2063616c6c6572206973206e6f7420746865206f776e657281525060200191505060405180910390fd5b6112bc8173ffffffffffffffffffffffffffffffffffffffff16611d6a565b15611312576040517f08c379a0000000000000000000000000000000000000000000000000000000008152600401808060200182810382526024815260200180611da66024913960400191505060405180910390fd5b61131b81610f4f565b1561138e576040517f08c379a00000000000000000000000000000000000000000000000000000000081526004018080602001828103825260158152602001807f416c72656164792061207368617265686f6c646572000000000000000000000081525060200191505060405180910390fd5b6001600660008373ffffffffffffffffffffffffffffffffffffffff1673ffffffffffffffffffffffffffffffffffffffff16815260200190815260200160002060006101000a81548160ff0219169083151502179055508073ffffffffffffffffffffffffffffffffffffffff16611405610fab565b73ffffffffffffffffffffffffffffffffffffffff167f7c2cc4b1f62a42b8608b2838821eaaedbda9faf0c99aede3d07a86a854bcd43460405160405180910390a350565b6000600160008473ffffffffffffffffffffffffffffffffffffffff1673ffffffffffffffffffffffffffffffffffffffff16815260200190815260200160002060008373ffffffffffffffffffffffffffffffffffffffff1673ffffffffffffffffffffffffffffffffffffffff16815260200190815260200160002054905092915050565b816114db81610f4f565b61154d576040517f08c379a00000000000000000000000000000000000000000000000000000000081526004018080602001828103825260118152602001807f4e6f742061207368617265686f6c64657200000000000000000000000000000081525060200191505060405180910390fd5b505050565b61155a611762565b73ffffffffffffffffffffffffffffffffffffffff16600560019054906101000a900473ffffffffffffffffffffffffffffffffffffffff1673ffffffffffffffffffffffffffffffffffffffff161461161c576040517f08c379a00000000000000000000000000000000000000000000000000000000081526004018080602001828103825260208152602001807f4f776e61626c653a2063616c6c6572206973206e6f7420746865206f776e657281525060200191505060405180910390fd5b600073ffffffffffffffffffffffffffffffffffffffff168173ffffffffffffffffffffffffffffffffffffffff1614156116a2576040517f08c379a0000000000000000000000000000000000000000000000000000000008152600401808060200182810382526026815260200180611dca6026913960400191505060405180910390fd5b8073ffffffffffffffffffffffffffffffffffffffff16600560019054906101000a900473ffffffffffffffffffffffffffffffffffffffff1673ffffffffffffffffffffffffffffffffffffffff167f8be0079c531659141344cd1fd0a4f28419497f9722a3daafe3b4186f6b6457e060405160405180910390a380600560016101000a81548173ffffffffffffffffffffffffffffffffffffffff021916908373ffffffffffffffffffffffffffffffffffffffff16021790555050565b600033905090565b600073ffffffffffffffffffffffffffffffffffffffff168373ffffffffffffffffffffffffffffffffffffffff1614156117f0576040517f08c379a0000000000000000000000000000000000000000000000000000000008152600401808060200182810382526024815260200180611e856024913960400191505060405180910390fd5b600073ffffffffffffffffffffffffffffffffffffffff168273ffffffffffffffffffffffffffffffffffffffff161415611876576040517f08c379a0000000000000000000000000000000000000000000000000000000008152600401808060200182810382526022815260200180611df06022913960400191505060405180910390fd5b80600160008573ffffffffffffffffffffffffffffffffffffffff1673ffffffffffffffffffffffffffffffffffffffff16815260200190815260200160002060008473ffffffffffffffffffffffffffffffffffffffff1673ffffffffffffffffffffffffffffffffffffffff168152602001908152602001600020819055508173ffffffffffffffffffffffffffffffffffffffff168373ffffffffffffffffffffffffffffffffffffffff167f8c5be1e5ebec7d5bd14f71427d1e84f3dd0314c0f7b2291e5b200ac8c7c3b925836040518082815260200191505060405180910390a3505050565b600073ffffffffffffffffffffffffffffffffffffffff168373ffffffffffffffffffffffffffffffffffffffff1614156119e7576040517f08c379a0000000000000000000000000000000000000000000000000000000008152600401808060200182810382526025815260200180611e606025913960400191505060405180910390fd5b600073ffffffffffffffffffffffffffffffffffffffff168273ffffffffffffffffffffffffffffffffffffffff161415611a6d576040517f08c379a0000000000000000000000000000000000000000000000000000000008152600401808060200182810382526023815260200180611d836023913960400191505060405180910390fd5b611a78838383611d7d565b611ae381604051806060016040528060268152602001611e12602691396000808773ffffffffffffffffffffffffffffffffffffffff1673ffffffffffffffffffffffffffffffffffffffff16815260200190815260200160002054611c229092919063ffffffff16565b6000808573ffffffffffffffffffffffffffffffffffffffff1673ffffffffffffffffffffffffffffffffffffffff16815260200190815260200160002081905550611b76816000808573ffffffffffffffffffffffffffffffffffffffff1673ffffffffffffffffffffffffffffffffffffffff16815260200190815260200160002054611ce290919063ffffffff16565b6000808473ffffffffffffffffffffffffffffffffffffffff1673ffffffffffffffffffffffffffffffffffffffff168152602001908152602001600020819055508173ffffffffffffffffffffffffffffffffffffffff168373ffffffffffffffffffffffffffffffffffffffff167fddf252ad1be2c89b69c2b068fc378daa952ba7f163c4a11628f55a4df523b3ef836040518082815260200191505060405180910390a3505050565b6000838311158290611ccf576040517f08c379a00000000000000000000000000000000000000000000000000000000081526004018080602001828103825283818151815260200191508051906020019080838360005b83811015611c94578082015181840152602081019050611c79565b50505050905090810190601f168015611cc15780820380516001836020036101000a031916815260200191505b509250505060405180910390fd5b5060008385039050809150509392505050565b600080828401905083811015611d60576040517f08c379a000000000000000000000000000000000000000000000000000000000815260040180806020018281038252601b8152602001807f536166654d6174683a206164646974696f6e206f766572666c6f77000000000081525060200191505060405180910390fd5b8091505092915050565b600080823b905060008111915050919050565b50505056fe45524332303a207472616e7366657220746f20746865207a65726f20616464726573734f6e6c7920454f412061726520616c6c6f776564206173207368617265686f6c646572734f776e61626c653a206e6577206f776e657220697320746865207a65726f206164647265737345524332303a20617070726f766520746f20746865207a65726f206164647265737345524332303a207472616e7366657220616d6f756e7420657863656564732062616c616e636545524332303a207472616e7366657220616d6f756e74206578636565647320616c6c6f77616e636545524332303a207472616e736665722066726f6d20746865207a65726f206164647265737345524332303a20617070726f76652066726f6d20746865207a65726f206164647265737345524332303a2064656372656173656420616c6c6f77616e63652062656c6f77207a65726fa2646970667358221220267bbc862f24497df6bacb7d66e9e91aa668f20b7b33c36b1cb12ca90f200bee64736f6c63430006060033608060405234801561001057600080fd5b50610261806100206000396000f3fe608060405234801561001057600080fd5b50600436106100365760003560e01c80636b9b2a4c1461003b578063b9209e331461007f575b600080fd5b61007d6004803603602081101561005157600080fd5b81019080803573ffffffffffffffffffffffffffffffffffffffff1690602001909291905050506100db565b005b6100c16004803603602081101561009557600080fd5b81019080803573ffffffffffffffffffffffffffffffffffffffff1690602001909291905050506101d6565b604051808215151515815260200191505060405180910390f35b8073ffffffffffffffffffffffffffffffffffffffff163373ffffffffffffffffffffffffffffffffffffffff161461017c576040517f08c379a00000000000000000000000000000000000000000000000000000000081526004018080602001828103825260168152602001807f4e6f74207468652070726f7065727479206f776e65720000000000000000000081525060200191505060405180910390fd5b60016000808373ffffffffffffffffffffffffffffffffffffffff1673ffffffffffffffffffffffffffffffffffffffff16815260200190815260200160002060006101000a81548160ff02191690831515021790555050565b60008060008373ffffffffffffffffffffffffffffffffffffffff1673ffffffffffffffffffffffffffffffffffffffff16815260200190815260200160002060009054906101000a900460ff16905091905056fea2646970667358221220f2bb7756f24021cda27241d05d595b8d2226f1bce600627296d015cde9dfe43164736f6c63430006060033",
  "immutableReferences": {},
  "source": "//SPDX-License-Identifier: MIT\npragma solidity >=0.6.0 <0.7.0;\n\nimport \"@openzeppelin/contracts/token/ERC20/ERC20.sol\";\nimport \"@openzeppelin/contracts/access/Ownable.sol\";\nimport \"@openzeppelin/contracts/utils/Address.sol\";\nimport \"./RealestateVerification.sol\";\nimport \"./RealEstateAPIConsumer.sol\";\n\ncontract RealestateToken is ERC20, Ownable {\n  using SafeMath for uint;\n  using Address  for address;\n\n  event AddShareholder (address indexed owner, address indexed shareholder);\n  event RemoveShareholder (address indexed owner, address indexed shareholder);\n  event TransferRevenue (address indexed sender, address indexed receipent, uint amount);\n\n\n  mapping(address => bool) internal shareholders;\n  mapping (address => uint) internal share;\n  uint public collected;\n  uint public totalShares;\n\n  RealestateVerification contractInstance = new RealestateVerification();\n\n  modifier checkShareholder(address _address) {\n    require(isShareHolder(_address), \"Not a shareholder\");\n   _;\n  }\n\n  constructor(address _owner, uint _supply) public ERC20(\"RealEstateToken\", \"RET\"){\n    //require(contractInstance.isVerified(_owner), \"property not verified\");\n    _mint(_owner, _supply);\n  }\n\n  function accumulate() external payable {\n    //TODO find a formula to convert amount to shares\n    //This is a dummy\n\n    collected = collected.add(msg.value);\n    totalShares = collected ;\n    share[_msgSender()] = msg.value;\n  }\n\n  function isShareHolder(address _address) public view returns (bool){\n    return shareholders[_address];\n  }\n\n/**\n * @dev function to add a shareholder\n * only allows EOAs to be a shareholder\n */\n\n  function addShareHolder(address _address) public onlyOwner {\n    require(!_address.isContract(), \"Only EOA are allowed as shareholders\");\n    require(!isShareHolder(_address), \"Already a shareholder\");\n    shareholders[_address] = true;\n    emit AddShareholder(owner(), _address);\n  }\n\n  function removeShareHolder(address _address) public onlyOwner checkShareholder(_address) {\n    shareholders[_address] = false;\n    emit RemoveShareholder(owner(), _address);\n\n  }\n\n  //need to figure out, is it to be transfer or distribute\n  function returnRevenue(address receipent, uint amount) internal checkShareholder(receipent) returns (bool) {\n    _transfer(_msgSender(), receipent, amount);\n    emit TransferRevenue(_msgSender(), receipent, amount);\n    return true;\n  }\n\n\n  function distributeRevenue(address _address, string memory _name) public checkShareholder(_address){\n    //TODO Formulate appropriate method to distribute the shares. This is a dummy\n\n    // require(share[_address] > 0 , \"You don't own any shares\");\n    // RealEstateAPIConsumer instance = new  RealEstateAPIConsumer();\n    //\n    // //TODO PLEASE CHECK WHETHER THIS IS THE CORRECT WAY OF RETRIEVING THE CLOSE PRICE !\n    //\n    // instance.realestatePrice(_name);\n    // uint256 closePrice = instance.closePrice();\n    // uint individualProfit = share[_address].div(totalShares).mul(closePrice);\n    // returnRevenue(_address, individualProfit);\n  }\n}\n",
  "sourcePath": "/Users/newsgate/Work/chainlink-hackathon/contracts/RealEstateToken.sol",
  "compiler": {
    "name": "solc",
    "version": "0.6.6+commit.6c089d02.Emscripten.clang"
  },
  "schemaVersion": "3.2.3",
  "updatedAt": "2020-09-25T21:29:55.545Z",
  "devdoc": {
    "methods": {
      "addShareHolder(address)": {
        "details": "function to add a shareholder only allows EOAs to be a shareholder"
      },
      "allowance(address,address)": {
        "details": "See {IERC20-allowance}."
      },
      "approve(address,uint256)": {
        "details": "See {IERC20-approve}.     * Requirements:     * - `spender` cannot be the zero address."
      },
      "balanceOf(address)": {
        "details": "See {IERC20-balanceOf}."
      },
      "decimals()": {
        "details": "Returns the number of decimals used to get its user representation. For example, if `decimals` equals `2`, a balance of `505` tokens should be displayed to a user as `5,05` (`505 / 10 ** 2`).     * Tokens usually opt for a value of 18, imitating the relationship between Ether and Wei. This is the value {ERC20} uses, unless {_setupDecimals} is called.     * NOTE: This information is only used for _display_ purposes: it in no way affects any of the arithmetic of the contract, including {IERC20-balanceOf} and {IERC20-transfer}."
      },
      "decreaseAllowance(address,uint256)": {
        "details": "Atomically decreases the allowance granted to `spender` by the caller.     * This is an alternative to {approve} that can be used as a mitigation for problems described in {IERC20-approve}.     * Emits an {Approval} event indicating the updated allowance.     * Requirements:     * - `spender` cannot be the zero address. - `spender` must have allowance for the caller of at least `subtractedValue`."
      },
      "increaseAllowance(address,uint256)": {
        "details": "Atomically increases the allowance granted to `spender` by the caller.     * This is an alternative to {approve} that can be used as a mitigation for problems described in {IERC20-approve}.     * Emits an {Approval} event indicating the updated allowance.     * Requirements:     * - `spender` cannot be the zero address."
      },
      "name()": {
        "details": "Returns the name of the token."
      },
      "owner()": {
        "details": "Returns the address of the current owner."
      },
      "renounceOwnership()": {
        "details": "Leaves the contract without owner. It will not be possible to call `onlyOwner` functions anymore. Can only be called by the current owner.     * NOTE: Renouncing ownership will leave the contract without an owner, thereby removing any functionality that is only available to the owner."
      },
      "symbol()": {
        "details": "Returns the symbol of the token, usually a shorter version of the name."
      },
      "totalSupply()": {
        "details": "See {IERC20-totalSupply}."
      },
      "transfer(address,uint256)": {
        "details": "See {IERC20-transfer}.     * Requirements:     * - `recipient` cannot be the zero address. - the caller must have a balance of at least `amount`."
      },
      "transferFrom(address,address,uint256)": {
        "details": "See {IERC20-transferFrom}.     * Emits an {Approval} event indicating the updated allowance. This is not required by the EIP. See the note at the beginning of {ERC20};     * Requirements: - `sender` and `recipient` cannot be the zero address. - `sender` must have a balance of at least `amount`. - the caller must have allowance for ``sender``'s tokens of at least `amount`."
      },
      "transferOwnership(address)": {
        "details": "Transfers ownership of the contract to a new account (`newOwner`). Can only be called by the current owner."
      }
    }
  },
  "userdoc": {
    "methods": {}
  }
}