{
  "contractName": "RealEstateAPIConsumer",
  "abi": [
    {
      "inputs": [],
      "stateMutability": "nonpayable",
      "type": "constructor"
    },
    {
      "anonymous": false,
      "inputs": [
        {
          "indexed": true,
          "internalType": "bytes32",
          "name": "id",
          "type": "bytes32"
        }
      ],
      "name": "ChainlinkCancelled",
      "type": "event"
    },
    {
      "anonymous": false,
      "inputs": [
        {
          "indexed": true,
          "internalType": "bytes32",
          "name": "id",
          "type": "bytes32"
        }
      ],
      "name": "ChainlinkFulfilled",
      "type": "event"
    },
    {
      "anonymous": false,
      "inputs": [
        {
          "indexed": true,
          "internalType": "bytes32",
          "name": "id",
          "type": "bytes32"
        }
      ],
      "name": "ChainlinkRequested",
      "type": "event"
    },
    {
      "inputs": [],
      "name": "latestRequestId",
      "outputs": [
        {
          "internalType": "bytes32",
          "name": "",
          "type": "bytes32"
        }
      ],
      "stateMutability": "view",
      "type": "function",
      "constant": true
    },
    {
      "inputs": [],
      "name": "price",
      "outputs": [
        {
          "internalType": "uint256",
          "name": "",
          "type": "uint256"
        }
      ],
      "stateMutability": "view",
      "type": "function",
      "constant": true
    },
    {
      "inputs": [],
      "name": "rent",
      "outputs": [
        {
          "internalType": "uint256",
          "name": "",
          "type": "uint256"
        }
      ],
      "stateMutability": "view",
      "type": "function",
      "constant": true
    },
    {
      "inputs": [],
      "name": "surfaceArea",
      "outputs": [
        {
          "internalType": "uint256",
          "name": "",
          "type": "uint256"
        }
      ],
      "stateMutability": "view",
      "type": "function",
      "constant": true
    },
    {
      "inputs": [],
      "name": "tokenHash",
      "outputs": [
        {
          "internalType": "bytes32",
          "name": "",
          "type": "bytes32"
        }
      ],
      "stateMutability": "view",
      "type": "function",
      "constant": true
    },
    {
      "inputs": [
        {
          "internalType": "string",
          "name": "_name",
          "type": "string"
        }
      ],
      "name": "realEstateData",
      "outputs": [],
      "stateMutability": "nonpayable",
      "type": "function"
    },
    {
      "inputs": [
        {
          "internalType": "string",
          "name": "_name",
          "type": "string"
        }
      ],
      "name": "returnClosePrice",
      "outputs": [],
      "stateMutability": "nonpayable",
      "type": "function"
    },
    {
      "inputs": [
        {
          "internalType": "bytes32",
          "name": "_requestId",
          "type": "bytes32"
        },
        {
          "internalType": "uint256",
          "name": "_price",
          "type": "uint256"
        }
      ],
      "name": "myCallback",
      "outputs": [],
      "stateMutability": "nonpayable",
      "type": "function"
    },
    {
      "inputs": [
        {
          "internalType": "string",
          "name": "_name",
          "type": "string"
        }
      ],
      "name": "getCurrentPriceByAddress",
      "outputs": [
        {
          "internalType": "uint256",
          "name": "",
          "type": "uint256"
        }
      ],
      "stateMutability": "view",
      "type": "function",
      "constant": true
    },
    {
      "inputs": [
        {
          "internalType": "bytes32",
          "name": "_requestId",
          "type": "bytes32"
        },
        {
          "internalType": "uint256",
          "name": "_surfaceArea",
          "type": "uint256"
        }
      ],
      "name": "fulfill",
      "outputs": [],
      "stateMutability": "nonpayable",
      "type": "function"
    },
    {
      "inputs": [
        {
          "internalType": "string",
          "name": "_name",
          "type": "string"
        }
      ],
      "name": "realestatePrice",
      "outputs": [
        {
          "internalType": "uint256",
          "name": "",
          "type": "uint256"
        }
      ],
      "stateMutability": "nonpayable",
      "type": "function"
    },
    {
      "inputs": [
        {
          "internalType": "bytes32",
          "name": "_requestId",
          "type": "bytes32"
        },
        {
          "internalType": "uint256",
          "name": "_price",
          "type": "uint256"
        }
      ],
      "name": "fulfillPrice",
      "outputs": [],
      "stateMutability": "nonpayable",
      "type": "function"
    },
    {
      "inputs": [
        {
          "internalType": "bytes32",
          "name": "_requestId",
          "type": "bytes32"
        },
        {
          "internalType": "uint256",
          "name": "_rent",
          "type": "uint256"
        }
      ],
      "name": "fulfillRent",
      "outputs": [],
      "stateMutability": "nonpayable",
      "type": "function"
    }
  ],
  "bytecode": "0x6080604052600160045534801561001557600080fd5b506100246100b460201b60201c565b73aa1dc356dc4b18f30c347798fd5379f3d77abc5b600660006101000a81548173ffffffffffffffffffffffffffffffffffffffff021916908373ffffffffffffffffffffffffffffffffffffffff1602179055507f633736666233333633343666346135353931633930636138323432303931643560078190555067016345785d8a000060088190555061019d565b61015773c89bd4e1632d3a43cb03aaad5262cbe4038bc57173ffffffffffffffffffffffffffffffffffffffff166338cc48316040518163ffffffff1660e01b815260040160206040518083038186803b15801561011157600080fd5b505afa158015610125573d6000803e3d6000fd5b505050506040513d602081101561013b57600080fd5b810190808051906020019092919050505061015960201b60201c565b565b80600260006101000a81548173ffffffffffffffffffffffffffffffffffffffff021916908373ffffffffffffffffffffffffffffffffffffffff16021790555050565b6119d180620001ad6000396000f3fe608060405234801561001057600080fd5b50600436106100cf5760003560e01c806389e7995f1161008c578063a035b1fe11610066578063a035b1fe146103ac578063a4c6eeac146103ca578063a833834f14610485578063cca4947314610540576100cf565b806389e7995f146102875780638d2a648d146102a55780639431b5bf146102dd576100cf565b8063117ba7f4146100d45780631aa46f59146101a357806338ba91f0146101c15780634357855e146101f95780634d14290a1461023157806382996d9f14610269575b600080fd5b61018d600480360360208110156100ea57600080fd5b810190808035906020019064010000000081111561010757600080fd5b82018360208201111561011957600080fd5b8035906020019184600183028401116401000000008311171561013b57600080fd5b91908080601f016020809104026020016040519081016040528093929190818152602001838380828437600081840152601f19601f82011690508083019250505050505050919291929050505061055e565b6040518082815260200191505060405180910390f35b6101ab610583565b6040518082815260200191505060405180910390f35b6101f7600480360360408110156101d757600080fd5b810190808035906020019092919080359060200190929190505050610589565b005b61022f6004803603604081101561020f57600080fd5b810190808035906020019092919080359060200190929190505050610702565b005b6102676004803603604081101561024757600080fd5b810190808035906020019092919080359060200190929190505050610829565b005b610271610950565b6040518082815260200191505060405180910390f35b61028f610956565b6040518082815260200191505060405180910390f35b6102db600480360360408110156102bb57600080fd5b81019080803590602001909291908035906020019092919050505061095c565b005b610396600480360360208110156102f357600080fd5b810190808035906020019064010000000081111561031057600080fd5b82018360208201111561032257600080fd5b8035906020019184600183028401116401000000008311171561034457600080fd5b91908080601f016020809104026020016040519081016040528093929190818152602001838380828437600081840152601f19601f820116905080830192505050505050509192919290505050610a83565b6040518082815260200191505060405180910390f35b6103b4610ba2565b6040518082815260200191505060405180910390f35b610483600480360360208110156103e057600080fd5b81019080803590602001906401000000008111156103fd57600080fd5b82018360208201111561040f57600080fd5b8035906020019184600183028401116401000000008311171561043157600080fd5b91908080601f016020809104026020016040519081016040528093929190818152602001838380828437600081840152601f19601f820116905080830192505050505050509192919290505050610ba8565b005b61053e6004803603602081101561049b57600080fd5b81019080803590602001906401000000008111156104b857600080fd5b8201836020820111156104ca57600080fd5b803590602001918460018302840111640100000000831117156104ec57600080fd5b91908080601f016020809104026020016040519081016040528093929190818152602001838380828437600081840152601f19601f820116905080830192505050505050509192919290505050610bc7565b005b610548610d00565b6040518082815260200191505060405180910390f35b6000600f600061056d84610d06565b8152602001908152602001600020549050919050565b600c5481565b816005600082815260200190815260200160002060009054906101000a900473ffffffffffffffffffffffffffffffffffffffff1673ffffffffffffffffffffffffffffffffffffffff163373ffffffffffffffffffffffffffffffffffffffff1614610641576040517f08c379a00000000000000000000000000000000000000000000000000000000081526004018080602001828103825260288152602001806119746028913960400191505060405180910390fd5b6005600082815260200190815260200160002060006101000a81549073ffffffffffffffffffffffffffffffffffffffff0219169055807f7cc135e0cebb02c3480ae5d74d377283180a2601f8f644edf7987b009316c63a60405160405180910390a2600e600084815260200190815260200160002054600d81905550600e60008481526020019081526020016000206000905581600f6000600d5481526020019081526020016000208190555082600c8190555081600981905550505050565b816005600082815260200190815260200160002060009054906101000a900473ffffffffffffffffffffffffffffffffffffffff1673ffffffffffffffffffffffffffffffffffffffff163373ffffffffffffffffffffffffffffffffffffffff16146107ba576040517f08c379a00000000000000000000000000000000000000000000000000000000081526004018080602001828103825260288152602001806119746028913960400191505060405180910390fd5b6005600082815260200190815260200160002060006101000a81549073ffffffffffffffffffffffffffffffffffffffff0219169055807f7cc135e0cebb02c3480ae5d74d377283180a2601f8f644edf7987b009316c63a60405160405180910390a281600a81905550505050565b816005600082815260200190815260200160002060009054906101000a900473ffffffffffffffffffffffffffffffffffffffff1673ffffffffffffffffffffffffffffffffffffffff163373ffffffffffffffffffffffffffffffffffffffff16146108e1576040517f08c379a00000000000000000000000000000000000000000000000000000000081526004018080602001828103825260288152602001806119746028913960400191505060405180910390fd5b6005600082815260200190815260200160002060006101000a81549073ffffffffffffffffffffffffffffffffffffffff0219169055807f7cc135e0cebb02c3480ae5d74d377283180a2601f8f644edf7987b009316c63a60405160405180910390a281600b81905550505050565b600b5481565b600a5481565b816005600082815260200190815260200160002060009054906101000a900473ffffffffffffffffffffffffffffffffffffffff1673ffffffffffffffffffffffffffffffffffffffff163373ffffffffffffffffffffffffffffffffffffffff1614610a14576040517f08c379a00000000000000000000000000000000000000000000000000000000081526004018080602001828103825260288152602001806119746028913960400191505060405180910390fd5b6005600082815260200190815260200160002060006101000a81549073ffffffffffffffffffffffffffffffffffffffff0219169055807f7cc135e0cebb02c3480ae5d74d377283180a2601f8f644edf7987b009316c63a60405160405180910390a281600981905550505050565b6000610a8d6118c9565b610aa160075430638d2a648d60e01b610d31565b9050610aed6040518060400160405280600481526020017f6e616d65000000000000000000000000000000000000000000000000000000008152508483610d629092919063ffffffff16565b610b6c6040518060400160405280600881526020017f636f7079506174680000000000000000000000000000000000000000000000008152506040518060400160405280600a81526020017f636c6f736550726963650000000000000000000000000000000000000000000081525083610d629092919063ffffffff16565b610b9b600660009054906101000a900473ffffffffffffffffffffffffffffffffffffffff1682600854610d95565b5050919050565b60095481565b610bb18161104d565b610bba81610a83565b50610bc481611168565b50565b610bcf6118c9565b610be3600754306338ba91f060e01b610d31565b9050610c2f6040518060400160405280600481526020017f6e616d65000000000000000000000000000000000000000000000000000000008152508383610d629092919063ffffffff16565b610cae6040518060400160405280600881526020017f636f7079506174680000000000000000000000000000000000000000000000008152506040518060400160405280600a81526020017f636c6f736550726963650000000000000000000000000000000000000000000081525083610d629092919063ffffffff16565b610cb782610d06565b600e6000610cea600660009054906101000a900473ffffffffffffffffffffffffffffffffffffffff1685600854610d95565b8152602001908152602001600020819055505050565b600d5481565b60006060829050600081511415610d23576000801b915050610d2c565b60208301519150505b919050565b610d396118c9565b610d416118c9565b610d5885858584611283909392919063ffffffff16565b9150509392505050565b610d7982846080015161133390919063ffffffff16565b610d9081846080015161133390919063ffffffff16565b505050565b600030600454604051602001808373ffffffffffffffffffffffffffffffffffffffff1673ffffffffffffffffffffffffffffffffffffffff1660601b815260140182815260200192505050604051602081830303815290604052805190602001209050600454836060018181525050836005600083815260200190815260200160002060006101000a81548173ffffffffffffffffffffffffffffffffffffffff021916908373ffffffffffffffffffffffffffffffffffffffff160217905550807fb5e6e01e79f91267dc17b4e6314d5d4d03593d2ceee0fbb452b750bd70ea5af960405160405180910390a2600260009054906101000a900473ffffffffffffffffffffffffffffffffffffffff1673ffffffffffffffffffffffffffffffffffffffff16634000aea08584610ecd87611358565b6040518463ffffffff1660e01b8152600401808473ffffffffffffffffffffffffffffffffffffffff1673ffffffffffffffffffffffffffffffffffffffff16815260200183815260200180602001828103825283818151815260200191508051906020019080838360005b83811015610f54578082015181840152602081019050610f39565b50505050905090810190601f168015610f815780820380516001836020036101000a031916815260200191505b50945050505050602060405180830381600087803b158015610fa257600080fd5b505af1158015610fb6573d6000803e3d6000fd5b505050506040513d6020811015610fcc57600080fd5b8101908080519060200190929190505050611032576040517f08c379a00000000000000000000000000000000000000000000000000000000081526004018080602001828103825260238152602001806119516023913960400191505060405180910390fd5b60016004600082825401925050819055508090509392505050565b6110556118c9565b61106960075430634357855e60e01b610d31565b90506110b56040518060400160405280600481526020017f6e616d65000000000000000000000000000000000000000000000000000000008152508383610d629092919063ffffffff16565b6111346040518060400160405280600881526020017f636f7079506174680000000000000000000000000000000000000000000000008152506040518060400160405280600b81526020017f737572666163654172656100000000000000000000000000000000000000000081525083610d629092919063ffffffff16565b611163600660009054906101000a900473ffffffffffffffffffffffffffffffffffffffff1682600854610d95565b505050565b6111706118c9565b61118460075430634d14290a60e01b610d31565b90506111d06040518060400160405280600481526020017f6e616d65000000000000000000000000000000000000000000000000000000008152508383610d629092919063ffffffff16565b61124f6040518060400160405280600881526020017f636f7079506174680000000000000000000000000000000000000000000000008152506040518060400160405280600c81526020017f657870656374656452656e74000000000000000000000000000000000000000081525083610d629092919063ffffffff16565b61127e600660009054906101000a900473ffffffffffffffffffffffffffffffffffffffff1682600854610d95565b505050565b61128b6118c9565b61129b8560800151610100611524565b508385600001818152505082856020019073ffffffffffffffffffffffffffffffffffffffff16908173ffffffffffffffffffffffffffffffffffffffff16815250508185604001907bffffffffffffffffffffffffffffffffffffffffffffffffffffffff191690817bffffffffffffffffffffffffffffffffffffffffffffffffffffffff191681525050849050949350505050565b6113408260038351611578565b61135381836116bd90919063ffffffff16565b505050565b6060634042994660e01b60008084600001518560200151866040015187606001516001896080015160000151604051602401808973ffffffffffffffffffffffffffffffffffffffff1673ffffffffffffffffffffffffffffffffffffffff1681526020018881526020018781526020018673ffffffffffffffffffffffffffffffffffffffff1673ffffffffffffffffffffffffffffffffffffffff168152602001857bffffffffffffffffffffffffffffffffffffffffffffffffffffffff19167bffffffffffffffffffffffffffffffffffffffffffffffffffffffff1916815260200184815260200183815260200180602001828103825283818151815260200191508051906020019080838360005b8381101561148757808201518184015260208101905061146c565b50505050905090810190601f1680156114b45780820380516001836020036101000a031916815260200191505b509950505050505050505050604051602081830303815290604052907bffffffffffffffffffffffffffffffffffffffffffffffffffffffff19166020820180517bffffffffffffffffffffffffffffffffffffffffffffffffffffffff83818316178352505050509050919050565b61152c611936565b60006020838161153857fe5b0614611551576020828161154857fe5b06602003820191505b81836020018181525050604051808452600081528281016020016040525082905092915050565b601781116115a55761159f8160058460ff16901b60ff1617846116df90919063ffffffff16565b506116b8565b60ff81116115e7576115ca601860058460ff16901b17846116df90919063ffffffff16565b506115e1816001856116ff9092919063ffffffff16565b506116b7565b61ffff811161162a5761160d601960058460ff16901b17846116df90919063ffffffff16565b50611624816002856116ff9092919063ffffffff16565b506116b6565b63ffffffff811161166f57611652601a60058460ff16901b17846116df90919063ffffffff16565b50611669816004856116ff9092919063ffffffff16565b506116b5565b67ffffffffffffffff81116116b45761169b601b60058460ff16901b17846116df90919063ffffffff16565b506116b2816008856116ff9092919063ffffffff16565b505b5b5b5b5b505050565b6116c5611936565b6116d783846000015151848551611721565b905092915050565b6116e7611936565b6116f783846000015151846117da565b905092915050565b611707611936565b611718848560000151518585611828565b90509392505050565b611729611936565b825182111561173757600080fd5b846020015182850111156117625761176185600261175b8860200151888701611889565b026118a5565b5b6000808651805187602083010193508088870111156117815787860182525b60208701925050505b602084106117ad578051825260208201915060208101905060208403935061178a565b60006001856020036101000a03905080198251168184511681811785525050879350505050949350505050565b6117e2611936565b836020015183106117ff576117fe8460028660200151026118a5565b5b835180516020858301018481538186141561181b576001820183525b5050508390509392505050565b611830611936565b8460200151848301111561184e5761184d856002868501026118a5565b5b60006001836101000a039050855183868201018583198251161781528151858801111561187b5784870182525b505085915050949350505050565b60008183111561189b5782905061189f565b8190505b92915050565b6060826000015190506118b88383611524565b506118c383826116bd565b50505050565b6040518060a0016040528060008019168152602001600073ffffffffffffffffffffffffffffffffffffffff16815260200160007bffffffffffffffffffffffffffffffffffffffffffffffffffffffff1916815260200160008152602001611930611936565b81525090565b60405180604001604052806060815260200160008152509056fe756e61626c6520746f207472616e73666572416e6443616c6c20746f206f7261636c65536f75726365206d75737420626520746865206f7261636c65206f66207468652072657175657374a26469706673582212205a1f480239dc6ff55d2deb827576159971ad6cba9ea011a829259d5f6c41f2d764736f6c63430006060033",
  "immutableReferences": {},
  "source": "pragma solidity >=0.6.0 <0.7.0;\n\nimport \"@chainlink/contracts/src/v0.6/ChainlinkClient.sol\";\n\ncontract RealEstateAPIConsumer is ChainlinkClient {\n  address private oracle;\n  bytes32 private jobId;\n  uint256 private fee;\n  uint256 public price;\n  uint public surfaceArea;\n  uint public rent;\n  bytes32 public latestRequestId;\n  bytes32 public tokenHash;\n\n  mapping(bytes32 => bytes32) internal receipts;\n  mapping(bytes32 => uint256) private currentRealEstatePrice;\n  mapping(bytes32 => uint256) private currentRealEstateRent;\n  mapping(bytes32 => uint256) private currentRealEstateArea;\n\n  constructor() public {\n    setPublicChainlinkToken();\n    oracle = 0xAA1DC356dc4B18f30C347798FD5379F3D77ABC5b;\n    jobId = \"c76fb336346f4a5591c90ca8242091d5\";\n    fee = 0.1 * 10 ** 18; // 0.1 LINK\n  }\n\n  function realEstateData(string memory _name) public {\n    realestateArea(_name);\n    realestatePrice(_name);\n    realestateRent(_name);\n  }\n\n  function returnClosePrice(string memory _name) public {\n    Chainlink.Request memory request = buildChainlinkRequest(jobId, address(this), this.myCallback.selector);\n    request.add(\"name\", _name);\n    request.add(\"copyPath\", \"closePrice\");\n    receipts[sendChainlinkRequestTo(oracle, request, fee)] = stringToBytes32(_name);\n  }\n\n  function myCallback(bytes32 _requestId, uint256 _price) public recordChainlinkFulfillment(_requestId){\n    tokenHash = receipts[_requestId];\n    delete receipts[_requestId];\n    currentRealEstatePrice[tokenHash] = _price;\n    latestRequestId = _requestId;\n    price = _price;\n  }\n\n  function getCurrentPriceByAddress(string memory _name) public view returns (uint256) {\n    return currentRealEstatePrice[stringToBytes32(_name)];\n  }\n\n  function realestateArea(string memory _name) private {\n    Chainlink.Request memory request = buildChainlinkRequest(jobId, address(this), this.fulfill.selector);\n    request.add(\"name\", _name);\n    request.add(\"copyPath\", \"surfaceArea\");\n    sendChainlinkRequestTo(oracle, request, fee);\n  }\n\n  function fulfill(bytes32 _requestId, uint256 _surfaceArea) public recordChainlinkFulfillment(_requestId){\n    surfaceArea = _surfaceArea;\n  }\n\n  function realestatePrice(string memory _name) public returns (uint){\n    Chainlink.Request memory request = buildChainlinkRequest(jobId, address(this), this.fulfillPrice.selector);\n    request.add(\"name\", _name);\n    request.add(\"copyPath\", \"closePrice\");\n    sendChainlinkRequestTo(oracle, request, fee);\n  }\n\n  function fulfillPrice(bytes32 _requestId, uint256 _price) public recordChainlinkFulfillment(_requestId){\n    price = _price;\n  }\n\n  function realestateRent(string memory _name) private {\n    Chainlink.Request memory request = buildChainlinkRequest(jobId, address(this), this.fulfillRent.selector);\n    request.add(\"name\", _name);\n    request.add(\"copyPath\", \"expectedRent\");\n    sendChainlinkRequestTo(oracle, request, fee);\n  }\n\n  function fulfillRent(bytes32 _requestId, uint256 _rent) public recordChainlinkFulfillment(_requestId){\n    rent = _rent;\n  }\n\n  function stringToBytes32(string memory source) internal pure returns (bytes32 result) {\n    bytes memory tempEmptyStringTest = bytes(source);\n    if (tempEmptyStringTest.length == 0) {\n      return 0x0;\n    }\n    assembly {\n      result := mload(add(source, 32))\n    }\n  }\n\n  function bytes32ToStr(bytes32 _bytes32) private pure returns (string memory) {\n    bytes memory bytesArray = new bytes(32);\n    for (uint256 i; i < 32; i++) {\n      bytesArray[i] = _bytes32[i];\n    }\n    return string(bytesArray);\n  }\n}\n",
  "sourcePath": "/Users/newsgate/Work/chainlink-hackathon/contracts/RealEstateAPIConsumer.sol",
  "compiler": {
    "name": "solc",
    "version": "0.6.6+commit.6c089d02.Emscripten.clang"
  },
  "schemaVersion": "3.2.3",
  "updatedAt": "2020-09-25T20:03:42.963Z",
  "networkType": "ethereum",
  "devdoc": {
    "methods": {}
  },
  "userdoc": {
    "methods": {}
  }
}